{
  "contractName": "Lottery",
  "abi": [
    {
      "inputs": [],
      "stateMutability": "nonpayable",
      "type": "constructor"
    },
    {
      "anonymous": false,
      "inputs": [
        {
          "components": [
            {
              "internalType": "string",
              "name": "playerName",
              "type": "string"
            },
            {
              "internalType": "address",
              "name": "playerAddress",
              "type": "address"
            },
            {
              "internalType": "bool",
              "name": "isPlayer",
              "type": "bool"
            }
          ],
          "indexed": false,
          "internalType": "struct Lottery.Player",
          "name": "",
          "type": "tuple"
        },
        {
          "indexed": false,
          "internalType": "uint256",
          "name": "prizeAmount",
          "type": "uint256"
        }
      ],
      "name": "WinnerPicked",
      "type": "event"
    },
    {
      "inputs": [],
      "name": "manager",
      "outputs": [
        {
          "internalType": "address",
          "name": "",
          "type": "address"
        }
      ],
      "stateMutability": "view",
      "type": "function",
      "constant": true
    },
    {
      "inputs": [
        {
          "internalType": "address",
          "name": "",
          "type": "address"
        }
      ],
      "name": "players",
      "outputs": [
        {
          "internalType": "string",
          "name": "playerName",
          "type": "string"
        },
        {
          "internalType": "address",
          "name": "playerAddress",
          "type": "address"
        },
        {
          "internalType": "bool",
          "name": "isPlayer",
          "type": "bool"
        }
      ],
      "stateMutability": "view",
      "type": "function",
      "constant": true
    },
    {
      "inputs": [],
      "name": "winner",
      "outputs": [
        {
          "internalType": "address",
          "name": "",
          "type": "address"
        }
      ],
      "stateMutability": "view",
      "type": "function",
      "constant": true
    },
    {
      "inputs": [
        {
          "internalType": "string",
          "name": "playerName",
          "type": "string"
        }
      ],
      "name": "enter",
      "outputs": [],
      "stateMutability": "payable",
      "type": "function",
      "payable": true
    },
    {
      "inputs": [],
      "name": "pickWinner",
      "outputs": [],
      "stateMutability": "nonpayable",
      "type": "function"
    },
    {
      "inputs": [],
      "name": "resetPlayers",
      "outputs": [],
      "stateMutability": "nonpayable",
      "type": "function"
    },
    {
      "inputs": [],
      "name": "totalBalance",
      "outputs": [
        {
          "internalType": "uint256",
          "name": "",
          "type": "uint256"
        }
      ],
      "stateMutability": "view",
      "type": "function",
      "constant": true
    },
    {
      "inputs": [],
      "name": "getTotalMapping",
      "outputs": [
        {
          "components": [
            {
              "internalType": "string",
              "name": "playerName",
              "type": "string"
            },
            {
              "internalType": "address",
              "name": "playerAddress",
              "type": "address"
            },
            {
              "internalType": "bool",
              "name": "isPlayer",
              "type": "bool"
            }
          ],
          "internalType": "struct Lottery.Player[]",
          "name": "",
          "type": "tuple[]"
        }
      ],
      "stateMutability": "view",
      "type": "function",
      "constant": true
    }
  ],
  "bytecode": "0x60a060405234801561001057600080fd5b503373ffffffffffffffffffffffffffffffffffffffff1660808173ffffffffffffffffffffffffffffffffffffffff1660601b8152505060805160601c61178861006d600039600081816101b701526101db01526117886000f3fe60806040526004361061007b5760003560e01c8063ad7a672f1161004e578063ad7a672f146100f5578063dfbf53ae14610120578063e2eb41ff1461014b578063f42463bf1461018a5761007b565b8063481c6a75146100805780635d495aea146100ab57806362214c03146100c25780639d4ff8ad146100d9575b600080fd5b34801561008c57600080fd5b506100956101b5565b6040516100a29190611117565b60405180910390f35b3480156100b757600080fd5b506100c06101d9565b005b3480156100ce57600080fd5b506100d76104af565b005b6100f360048036038101906100ee9190610da2565b6105d4565b005b34801561010157600080fd5b5061010a61080e565b6040516101179190611242565b60405180910390f35b34801561012c57600080fd5b50610135610816565b6040516101429190611117565b60405180910390f35b34801561015757600080fd5b50610172600480360381019061016d9190610d79565b61083a565b60405161018193929190611154565b60405180910390f35b34801561019657600080fd5b5061019f610919565b6040516101ac9190611132565b60405180910390f35b7f000000000000000000000000000000000000000000000000000000000000000081565b7f000000000000000000000000000000000000000000000000000000000000000073ffffffffffffffffffffffffffffffffffffffff163373ffffffffffffffffffffffffffffffffffffffff1614610267576040517f08c379a000000000000000000000000000000000000000000000000000000000815260040161025e906111d2565b60405180910390fd5b600360028054905010156102b0576040517f08c379a00000000000000000000000000000000000000000000000000000000081526004016102a790611192565b60405180910390fd5b60006002805490506001436102c5919061132e565b406040516020016102d691906110fc565b6040516020818303038152906040528051906020012060001c6102f9919061150d565b905060028181548110610335577f4e487b7100000000000000000000000000000000000000000000000000000000600052603260045260246000fd5b9060005260206000200160009054906101000a900473ffffffffffffffffffffffffffffffffffffffff166000806101000a81548173ffffffffffffffffffffffffffffffffffffffff021916908373ffffffffffffffffffffffffffffffffffffffff160217905550600047905060008054906101000a900473ffffffffffffffffffffffffffffffffffffffff1673ffffffffffffffffffffffffffffffffffffffff166108fc829081150290604051600060405180830381858888f1935050505015801561040a573d6000803e3d6000fd5b507fa5b7b1115f09d45b04e58eb649354eac0500613cb13879c786d2f618dd6ed393600160008060009054906101000a900473ffffffffffffffffffffffffffffffffffffffff1673ffffffffffffffffffffffffffffffffffffffff1673ffffffffffffffffffffffffffffffffffffffff1681526020019081526020016000208260405161049b929190611212565b60405180910390a16104ab6104af565b5050565b60005b6002805490508110156105c35760016000600283815481106104fd577f4e487b7100000000000000000000000000000000000000000000000000000000600052603260045260246000fd5b9060005260206000200160009054906101000a900473ffffffffffffffffffffffffffffffffffffffff1673ffffffffffffffffffffffffffffffffffffffff1673ffffffffffffffffffffffffffffffffffffffff168152602001908152602001600020600080820160006105739190610bbf565b6001820160006101000a81549073ffffffffffffffffffffffffffffffffffffffff02191690556001820160146101000a81549060ff0219169055505080806105bb906114ba565b9150506104b2565b50600260006105d29190610bff565b565b66038d7ea4c6800034101561061e576040517f08c379a0000000000000000000000000000000000000000000000000000000008152600401610615906111b2565b60405180910390fd5b600160003373ffffffffffffffffffffffffffffffffffffffff1673ffffffffffffffffffffffffffffffffffffffff16815260200190815260200160002060010160149054906101000a900460ff16156106ae576040517f08c379a00000000000000000000000000000000000000000000000000000000081526004016106a5906111f2565b60405180910390fd5b60405180606001604052808281526020013373ffffffffffffffffffffffffffffffffffffffff16815260200160011515815250600160003373ffffffffffffffffffffffffffffffffffffffff1673ffffffffffffffffffffffffffffffffffffffff168152602001908152602001600020600082015181600001908051906020019061073d929190610c20565b5060208201518160010160006101000a81548173ffffffffffffffffffffffffffffffffffffffff021916908373ffffffffffffffffffffffffffffffffffffffff16021790555060408201518160010160146101000a81548160ff0219169083151502179055509050506002339080600181540180825580915050600190039060005260206000200160009091909190916101000a81548173ffffffffffffffffffffffffffffffffffffffff021916908373ffffffffffffffffffffffffffffffffffffffff16021790555050565b600047905090565b60008054906101000a900473ffffffffffffffffffffffffffffffffffffffff1681565b600160205280600052604060002060009150905080600001805461085d90611423565b80601f016020809104026020016040519081016040528092919081815260200182805461088990611423565b80156108d65780601f106108ab576101008083540402835291602001916108d6565b820191906000526020600020905b8154815290600101906020018083116108b957829003601f168201915b5050505050908060010160009054906101000a900473ffffffffffffffffffffffffffffffffffffffff16908060010160149054906101000a900460ff16905083565b60606000600280549050905060008167ffffffffffffffff811115610967577f4e487b7100000000000000000000000000000000000000000000000000000000600052604160045260246000fd5b6040519080825280602002602001820160405280156109a057816020015b61098d610ca6565b8152602001906001900390816109855790505b50905060005b82811015610bb65760016000600283815481106109ec577f4e487b7100000000000000000000000000000000000000000000000000000000600052603260045260246000fd5b9060005260206000200160009054906101000a900473ffffffffffffffffffffffffffffffffffffffff1673ffffffffffffffffffffffffffffffffffffffff1673ffffffffffffffffffffffffffffffffffffffff168152602001908152602001600020604051806060016040529081600082018054610a6c90611423565b80601f0160208091040260200160405190810160405280929190818152602001828054610a9890611423565b8015610ae55780601f10610aba57610100808354040283529160200191610ae5565b820191906000526020600020905b815481529060010190602001808311610ac857829003601f168201915b505050505081526020016001820160009054906101000a900473ffffffffffffffffffffffffffffffffffffffff1673ffffffffffffffffffffffffffffffffffffffff1673ffffffffffffffffffffffffffffffffffffffff1681526020016001820160149054906101000a900460ff161515151581525050828281518110610b98577f4e487b7100000000000000000000000000000000000000000000000000000000600052603260045260246000fd5b60200260200101819052508080610bae906114ba565b9150506109a6565b50809250505090565b508054610bcb90611423565b6000825580601f10610bdd5750610bfc565b601f016020900490600052602060002090810190610bfb9190610cdf565b5b50565b5080546000825590600052602060002090810190610c1d9190610cdf565b50565b828054610c2c90611423565b90600052602060002090601f016020900481019282610c4e5760008555610c95565b82601f10610c6757805160ff1916838001178555610c95565b82800160010185558215610c95579182015b82811115610c94578251825591602001919060010190610c79565b5b509050610ca29190610cdf565b5090565b604051806060016040528060608152602001600073ffffffffffffffffffffffffffffffffffffffff1681526020016000151581525090565b5b80821115610cf8576000816000905550600101610ce0565b5090565b6000610d0f610d0a84611282565b61125d565b905082815260208101848484011115610d2757600080fd5b610d328482856113e1565b509392505050565b600081359050610d498161173b565b92915050565b600082601f830112610d6057600080fd5b8135610d70848260208601610cfc565b91505092915050565b600060208284031215610d8b57600080fd5b6000610d9984828501610d3a565b91505092915050565b600060208284031215610db457600080fd5b600082013567ffffffffffffffff811115610dce57600080fd5b610dda84828501610d4f565b91505092915050565b6000610def838361103d565b905092915050565b610e008161138f565b82525050565b610e0f8161138f565b82525050565b6000610e20826112d8565b610e2a81856112fb565b935083602082028501610e3c856112b3565b8060005b85811015610e785784840389528151610e598582610de3565b9450610e64836112ee565b925060208a01995050600181019050610e40565b50829750879550505050505092915050565b610e93816113a1565b82525050565b610ea2816113a1565b82525050565b610eb9610eb4826113ad565b611503565b82525050565b6000610eca826112e3565b610ed4818561130c565b9350610ee48185602086016113f0565b610eed816115fa565b840191505092915050565b6000610f03826112e3565b610f0d818561131d565b9350610f1d8185602086016113f0565b610f26816115fa565b840191505092915050565b60008154610f3e81611423565b610f48818661130c565b94506001821660008114610f635760018114610f7557610fa8565b60ff1983168652602086019350610fa8565b610f7e856112c3565b60005b83811015610fa057815481890152600182019150602081019050610f81565b808801955050505b50505092915050565b6000610fbe602c8361131d565b9150610fc982611625565b604082019050919050565b6000610fe160238361131d565b9150610fec82611674565b604082019050919050565b600061100460278361131d565b915061100f826116c3565b604082019050919050565b600061102760188361131d565b915061103282611712565b602082019050919050565b6000606083016000830151848203600086015261105a8282610ebf565b915050602083015161106f6020860182610df7565b5060408301516110826040860182610e8a565b508091505092915050565b600060608301600080840185830360008701526110aa8382610f31565b925050600184015490506110bd81611455565b6110ca6020870182610df7565b506110d48161146f565b6110e16040870182610e8a565b50819250505092915050565b6110f6816113d7565b82525050565b60006111088284610ea8565b60208201915081905092915050565b600060208201905061112c6000830184610e06565b92915050565b6000602082019050818103600083015261114c8184610e15565b905092915050565b6000606082019050818103600083015261116e8186610ef8565b905061117d6020830185610e06565b61118a6040830184610e99565b949350505050565b600060208201905081810360008301526111ab81610fb1565b9050919050565b600060208201905081810360008301526111cb81610fd4565b9050919050565b600060208201905081810360008301526111eb81610ff7565b9050919050565b6000602082019050818103600083015261120b8161101a565b9050919050565b6000604082019050818103600083015261122c818561108d565b905061123b60208301846110ed565b9392505050565b600060208201905061125760008301846110ed565b92915050565b6000611267611278565b90506112738282611489565b919050565b6000604051905090565b600067ffffffffffffffff82111561129d5761129c6115cb565b5b6112a6826115fa565b9050602081019050919050565b6000819050602082019050919050565b60008190508160005260206000209050919050565b600081519050919050565b600081519050919050565b6000602082019050919050565b600082825260208201905092915050565b600082825260208201905092915050565b600082825260208201905092915050565b6000611339826113d7565b9150611344836113d7565b9250828210156113575761135661153e565b5b828203905092915050565b600073ffffffffffffffffffffffffffffffffffffffff82169050919050565b600060ff82169050919050565b600061139a826113b7565b9050919050565b60008115159050919050565b6000819050919050565b600073ffffffffffffffffffffffffffffffffffffffff82169050919050565b6000819050919050565b82818337600083830152505050565b60005b8381101561140e5780820151818401526020810190506113f3565b8381111561141d576000848401525b50505050565b6000600282049050600182168061143b57607f821691505b6020821081141561144f5761144e61159c565b5b50919050565b60006114686114638361160b565b611362565b9050919050565b600061148261147d83611618565b611382565b9050919050565b611492826115fa565b810181811067ffffffffffffffff821117156114b1576114b06115cb565b5b80604052505050565b60006114c5826113d7565b91507fffffffffffffffffffffffffffffffffffffffffffffffffffffffffffffffff8214156114f8576114f761153e565b5b600182019050919050565b6000819050919050565b6000611518826113d7565b9150611523836113d7565b9250826115335761153261156d565b5b828206905092915050565b7f4e487b7100000000000000000000000000000000000000000000000000000000600052601160045260246000fd5b7f4e487b7100000000000000000000000000000000000000000000000000000000600052601260045260246000fd5b7f4e487b7100000000000000000000000000000000000000000000000000000000600052602260045260246000fd5b7f4e487b7100000000000000000000000000000000000000000000000000000000600052604160045260246000fd5b6000601f19601f8301169050919050565b60008160001c9050919050565b60008160a01c9050919050565b7f4174206c65617374203320706c617965727320726571756972656420746f207060008201527f69636b20612077696e6e65720000000000000000000000000000000000000000602082015250565b7f4d696e696d756d20636f6e747269627574696f6e20697320302e30303120657460008201527f6865720000000000000000000000000000000000000000000000000000000000602082015250565b7f4f6e6c7920746865206d616e616765722063616e2063616c6c2074686973206660008201527f756e6374696f6e00000000000000000000000000000000000000000000000000602082015250565b7f596f752061726520616c7265616479206120706c617965720000000000000000600082015250565b6117448161138f565b811461174f57600080fd5b5056fea26469706673582212208bd62894aa321d657933378997f360708ef67b01b6c014efa66acab8ccb0f96264736f6c63430008040033",
  "immutableReferences": {
    "10": [
      {
        "length": 32,
        "start": 439
      },
      {
        "length": 32,
        "start": 475
      }
    ]
  },
  "source": "// SPDX-License-Identifier: MIT \n\npragma solidity >=0.4.22 <0.8.21;\n\ncontract Lottery {\n    struct Player {\n        string playerName;\n        address playerAddress;\n        bool isPlayer;\n\n        \n    }\n\n    address public immutable manager;\n    address public  winner;\n    mapping(address => Player) public players;\n    address[] addresses;\n\n\n    // Define an event for when a player enters the lottery\n    // event PlayerEntered(Player); //uncomment if you want events when new player enters\n\n    // Define an event for when a winner is picked\n event WinnerPicked(Player, uint prizeAmount); \n\n    constructor() {\n        manager = msg.sender;\n    }\n\n    function enter(string memory playerName) public payable validateAmount {\n        require(!players[msg.sender].isPlayer, \"You are already a player\");\n\n        players[msg.sender] = Player(playerName,msg.sender, true);\n        addresses.push(msg.sender);\n\n\n        // Emit the PlayerEntered event when a player enters the lottery\n        // emit PlayerEntered(players[msg.sender]);   // //uncomment if you want events when new player enters\n    }\n\nfunction pickWinner() public restricted {\n    require(addresses.length >= 3, \"At least 3 players required to pick a winner\");\n\n   \n    uint index = uint(keccak256(abi.encodePacked(blockhash(block.number - 1)))) % addresses.length;\n\n    winner = addresses[index];\n\n    uint balance = address(this).balance;\n\n    // Transfer the prize amount to the winner\n    payable(winner).transfer(balance);\n\n    // Emit the WinnerPicked event when a winner is picked\n    emit WinnerPicked(players[winner], balance);\n\n    // Reset the players and addresses array\n    resetPlayers();\n}\n  function resetPlayers() public  {\n\n for (uint256 i = 0; i < addresses.length; i++) {\n           delete players[addresses[i]];\n          \n\n        }\n         delete addresses;\n  }\n    modifier restricted() {\n        require(\n            msg.sender == manager,\n            \"Only the manager can call this function\"\n        );\n        _;\n    }\n\n    modifier validateAmount() {\n        require(\n            msg.value >= 0.001 ether,\n            \"Minimum contribution is 0.001 ether\"\n        );\n        _;\n    }\n\n    function totalBalance() public view returns (uint) {\n        return address(this).balance;\n    }\n\n    function getTotalMapping() public view returns (Player[] memory) {\n        uint256 length = addresses.length;\n        Player[] memory playerData = new Player[](length);\n        for (uint256 i = 0; i < length; i++) {\n            playerData[i] = players[addresses[i]];\n        }\n        return playerData;\n    }\n\n  \n}",
  "sourcePath": "/home/farman/dapps/lottery/backend/contracts/lottery.sol",
  "compiler": {
    "name": "solc",
    "version": "0.8.4+commit.c7e474f2.Emscripten.clang"
  },
  "schemaVersion": "3.4.16",
  "updatedAt": "2023-11-14T17:40:14.192Z",
  "networkType": "ethereum",
  "devdoc": {
    "kind": "dev",
    "methods": {},
    "version": 1
  },
  "userdoc": {
    "kind": "user",
    "methods": {},
    "version": 1
  }
}