{
  "contractName": "Lottery",
  "abi": [
    {
      "inputs": [],
      "stateMutability": "nonpayable",
      "type": "constructor"
    },
    {
      "inputs": [],
      "name": "manager",
      "outputs": [
        {
          "internalType": "address",
          "name": "",
          "type": "address"
        }
      ],
      "stateMutability": "view",
      "type": "function",
      "constant": true
    },
    {
      "inputs": [
        {
          "internalType": "uint256",
          "name": "",
          "type": "uint256"
        }
      ],
      "name": "players",
      "outputs": [
        {
          "internalType": "address",
          "name": "",
          "type": "address"
        }
      ],
      "stateMutability": "view",
      "type": "function",
      "constant": true
    },
    {
      "stateMutability": "payable",
      "type": "receive",
      "payable": true
    },
    {
      "inputs": [],
      "name": "enter",
      "outputs": [],
      "stateMutability": "payable",
      "type": "function",
      "payable": true
    },
    {
      "inputs": [],
      "name": "pickWinner",
      "outputs": [],
      "stateMutability": "nonpayable",
      "type": "function"
    },
    {
      "inputs": [],
      "name": "getPlayers",
      "outputs": [
        {
          "internalType": "address[]",
          "name": "",
          "type": "address[]"
        }
      ],
      "stateMutability": "view",
      "type": "function",
      "constant": true
    }
  ],
  "bytecode": "0x608060405234801561001057600080fd5b50336000806101000a81548173ffffffffffffffffffffffffffffffffffffffff021916908373ffffffffffffffffffffffffffffffffffffffff160217905550610bf6806100606000396000f3fe60806040526004361061004e5760003560e01c8063481c6a751461005a5780635d495aea146100855780638b5b9ccc1461009c578063e97dcb62146100c7578063f71d96cb146100d157610055565b3661005557005b600080fd5b34801561006657600080fd5b5061006f61010e565b60405161007c919061086f565b60405180910390f35b34801561009157600080fd5b5061009a610132565b005b3480156100a857600080fd5b506100b161035d565b6040516100be919061088a565b60405180910390f35b6100cf6103eb565b005b3480156100dd57600080fd5b506100f860048036038101906100f39190610633565b6104e2565b604051610105919061086f565b60405180910390f35b60008054906101000a900473ffffffffffffffffffffffffffffffffffffffff1681565b60008054906101000a900473ffffffffffffffffffffffffffffffffffffffff1673ffffffffffffffffffffffffffffffffffffffff163373ffffffffffffffffffffffffffffffffffffffff16146101c0576040517f08c379a00000000000000000000000000000000000000000000000000000000081526004016101b7906108cc565b60405180910390fd5b600060018054905011610208576040517f08c379a00000000000000000000000000000000000000000000000000000000081526004016101ff9061090c565b60405180910390fd5b600060018080549050610219610521565b6102239190610a52565b8154811061025a577f4e487b7100000000000000000000000000000000000000000000000000000000600052603260045260246000fd5b9060005260206000200160009054906101000a900473ffffffffffffffffffffffffffffffffffffffff16905060004790508173ffffffffffffffffffffffffffffffffffffffff166108fc829081150290604051600060405180830381858888f193505050501580156102d2573d6000803e3d6000fd5b50600067ffffffffffffffff811115610314577f4e487b7100000000000000000000000000000000000000000000000000000000600052604160045260246000fd5b6040519080825280602002602001820160405280156103425781602001602082028036833780820191505090505b5060019080519060200190610358929190610577565b505050565b606060018054806020026020016040519081016040528092919081815260200182805480156103e157602002820191906000526020600020905b8160009054906101000a900473ffffffffffffffffffffffffffffffffffffffff1673ffffffffffffffffffffffffffffffffffffffff1681526020019060010190808311610397575b5050505050905090565b67016345785d8a00003414610435576040517f08c379a000000000000000000000000000000000000000000000000000000000815260040161042c906108ec565b60405180910390fd5b60036001805490501061047d576040517f08c379a0000000000000000000000000000000000000000000000000000000008152600401610474906108ac565b60405180910390fd5b6001339080600181540180825580915050600190039060005260206000200160009091909190916101000a81548173ffffffffffffffffffffffffffffffffffffffff021916908373ffffffffffffffffffffffffffffffffffffffff160217905550565b600181815481106104f257600080fd5b906000526020600020016000915054906101000a900473ffffffffffffffffffffffffffffffffffffffff1681565b600042600160008054906101000a900473ffffffffffffffffffffffffffffffffffffffff1660405160200161055993929190610836565b6040516020818303038152906040528051906020012060001c905090565b8280548282559060005260206000209081019282156105f0579160200282015b828111156105ef5782518260006101000a81548173ffffffffffffffffffffffffffffffffffffffff021916908373ffffffffffffffffffffffffffffffffffffffff16021790555091602001919060010190610597565b5b5090506105fd9190610601565b5090565b5b8082111561061a576000816000905550600101610602565b5090565b60008135905061062d81610ba9565b92915050565b60006020828403121561064557600080fd5b60006106538482850161061e565b91505092915050565b6000610668838361068c565b60208301905092915050565b600061068083836106aa565b60208301905092915050565b610695816109ce565b82525050565b6106a4816109ce565b82525050565b6106b3816109ce565b82525050565b6106ca6106c5826109ce565b610a24565b82525050565b60006106db82610951565b6106e58185610981565b93506106f08361092c565b8060005b83811015610721578151610708888261065c565b975061071383610967565b9250506001810190506106f4565b5085935050505092915050565b60006107398261095c565b6107438185610992565b935061074e8361093c565b8060005b838110156107865761076382610ab2565b61076d8882610674565b975061077883610974565b925050600181019050610752565b5085935050505092915050565b60006107a060198361099d565b91506107ab82610adf565b602082019050919050565b60006107c360278361099d565b91506107ce82610b08565b604082019050919050565b60006107e6601f8361099d565b91506107f182610b57565b602082019050919050565b6000610809601b8361099d565b915061081482610b80565b602082019050919050565b61083061082b82610a00565b610a48565b82525050565b6000610842828661081f565b602082019150610852828561072e565b915061085e82846106b9565b601482019150819050949350505050565b6000602082019050610884600083018461069b565b92915050565b600060208201905081810360008301526108a481846106d0565b905092915050565b600060208201905081810360008301526108c581610793565b9050919050565b600060208201905081810360008301526108e5816107b6565b9050919050565b60006020820190508181036000830152610905816107d9565b9050919050565b60006020820190508181036000830152610925816107fc565b9050919050565b6000819050602082019050919050565b60008190508160005260206000209050919050565b600081519050919050565b600081549050919050565b6000602082019050919050565b6000600182019050919050565b600082825260208201905092915050565b600081905092915050565b600082825260208201905092915050565b600073ffffffffffffffffffffffffffffffffffffffff82169050919050565b60006109d9826109e0565b9050919050565b600073ffffffffffffffffffffffffffffffffffffffff82169050919050565b6000819050919050565b6000610a1d610a1883610ad2565b6109ae565b9050919050565b6000610a2f82610a36565b9050919050565b6000610a4182610ac5565b9050919050565b6000819050919050565b6000610a5d82610a00565b9150610a6883610a00565b925082610a7857610a77610a83565b5b828206905092915050565b7f4e487b7100000000000000000000000000000000000000000000000000000000600052601260045260246000fd5b6000610abe8254610a0a565b9050919050565b60008160601b9050919050565b60008160001c9050919050565b7f4d6178696d756d203320706c617965727320616c6c6f77656400000000000000600082015250565b7f4f6e6c7920746865206d616e616765722063616e2063616c6c2074686973206660008201527f756e6374696f6e00000000000000000000000000000000000000000000000000602082015250565b7f4d696e696d756d20636f6e747269627574696f6e206973203120657468657200600082015250565b7f4e6f20706c617965727320746f207069636b20612077696e6e65720000000000600082015250565b610bb281610a00565b8114610bbd57600080fd5b5056fea26469706673582212208095627bb6368b7e58a65664204488bb7c88f276f4d3791dfb322e180fece0ee64736f6c63430008040033",
  "immutableReferences": {},
  "source": "// SPDX-License-Identifier: MIT\npragma solidity >=0.4.22 <0.8.21;\n\ncontract Lottery {\n    address public manager;\n    address[] public players;\n\n    constructor() {\n        manager = msg.sender;\n    }\n\n    // Function to enter the lottery\n    function enter() public payable validateAmount {\n        require(players.length < 3, \"Maximum 3 players allowed\");\n        players.push(msg.sender);\n    }\n\n    // Function to pick a winner\n    function pickWinner() public restricted {\n        require(players.length > 0, \"No players to pick a winner\");\n        address winner = players[random() % players.length];\n        uint balance = address(this).balance;\n        payable(winner).transfer(balance);\n        players = new address[](0); // Reset the players array\n    }\n\n    // Function to get the current players\n    function getPlayers() public view returns (address[] memory) {\n        return players;\n    }\n\n    // Modifier to restrict access to the manager\n    modifier restricted() {\n        require(\n            msg.sender == manager,\n            \"Only the manager can call this function\"\n        );\n        _;\n    }\n    modifier validateAmount() {\n        require(msg.value == 0.1 ether, \"Minimum contribution is 1 ether\");\n        _;\n    }\n\n    // Function to generate a pseudo-random number based on the block's timestamp\n    function random() private view returns (uint) {\n        return\n            uint(\n                keccak256(abi.encodePacked(block.timestamp, players, manager))\n            );\n    }\n\n    // Receive function to accept Ether\n    receive() external payable {\n        // This function allows the contract to accept Ether without a specific function call.\n    }\n}\n",
  "sourcePath": "/home/farman/dapps/lottery/backend/contracts/lottery.sol",
  "compiler": {
    "name": "solc",
    "version": "0.8.4+commit.c7e474f2.Emscripten.clang"
  },
  "schemaVersion": "3.4.16",
  "updatedAt": "2023-10-26T19:26:18.549Z",
  "networkType": "ethereum",
  "devdoc": {
    "kind": "dev",
    "methods": {},
    "version": 1
  },
  "userdoc": {
    "kind": "user",
    "methods": {},
    "version": 1
  }
}