{
  "contractName": "Lottery",
  "abi": [
    {
      "inputs": [],
      "stateMutability": "nonpayable",
      "type": "constructor"
    },
    {
      "anonymous": false,
      "inputs": [
        {
          "components": [
            {
              "internalType": "string",
              "name": "playerName",
              "type": "string"
            },
            {
              "internalType": "address",
              "name": "playerAddress",
              "type": "address"
            },
            {
              "internalType": "bool",
              "name": "isPlayer",
              "type": "bool"
            }
          ],
          "indexed": false,
          "internalType": "struct Lottery.Player",
          "name": "",
          "type": "tuple"
        }
      ],
      "name": "PlayerEntered",
      "type": "event"
    },
    {
      "anonymous": false,
      "inputs": [
        {
          "components": [
            {
              "internalType": "string",
              "name": "playerName",
              "type": "string"
            },
            {
              "internalType": "address",
              "name": "playerAddress",
              "type": "address"
            },
            {
              "internalType": "bool",
              "name": "isPlayer",
              "type": "bool"
            }
          ],
          "indexed": false,
          "internalType": "struct Lottery.Player",
          "name": "",
          "type": "tuple"
        },
        {
          "indexed": false,
          "internalType": "uint256",
          "name": "prizeAmount",
          "type": "uint256"
        }
      ],
      "name": "WinnerPicked",
      "type": "event"
    },
    {
      "inputs": [],
      "name": "manager",
      "outputs": [
        {
          "internalType": "address",
          "name": "",
          "type": "address"
        }
      ],
      "stateMutability": "view",
      "type": "function",
      "constant": true
    },
    {
      "inputs": [
        {
          "internalType": "address",
          "name": "",
          "type": "address"
        }
      ],
      "name": "players",
      "outputs": [
        {
          "internalType": "string",
          "name": "playerName",
          "type": "string"
        },
        {
          "internalType": "address",
          "name": "playerAddress",
          "type": "address"
        },
        {
          "internalType": "bool",
          "name": "isPlayer",
          "type": "bool"
        }
      ],
      "stateMutability": "view",
      "type": "function",
      "constant": true
    },
    {
      "inputs": [],
      "name": "winner",
      "outputs": [
        {
          "internalType": "address",
          "name": "",
          "type": "address"
        }
      ],
      "stateMutability": "view",
      "type": "function",
      "constant": true
    },
    {
      "inputs": [
        {
          "internalType": "string",
          "name": "playerName",
          "type": "string"
        }
      ],
      "name": "enter",
      "outputs": [],
      "stateMutability": "payable",
      "type": "function",
      "payable": true
    },
    {
      "inputs": [],
      "name": "pickWinner",
      "outputs": [],
      "stateMutability": "nonpayable",
      "type": "function"
    },
    {
      "inputs": [],
      "name": "totalBalance",
      "outputs": [
        {
          "internalType": "uint256",
          "name": "",
          "type": "uint256"
        }
      ],
      "stateMutability": "view",
      "type": "function",
      "constant": true
    },
    {
      "inputs": [],
      "name": "getTotalMapping",
      "outputs": [
        {
          "components": [
            {
              "internalType": "string",
              "name": "playerName",
              "type": "string"
            },
            {
              "internalType": "address",
              "name": "playerAddress",
              "type": "address"
            },
            {
              "internalType": "bool",
              "name": "isPlayer",
              "type": "bool"
            }
          ],
          "internalType": "struct Lottery.Player[]",
          "name": "",
          "type": "tuple[]"
        }
      ],
      "stateMutability": "view",
      "type": "function",
      "constant": true
    }
  ],
  "bytecode": "0x60a060405234801561001057600080fd5b503373ffffffffffffffffffffffffffffffffffffffff1660808173ffffffffffffffffffffffffffffffffffffffff1660601b8152505060805160601c61173a61006d6000396000818161019501526101b9015261173a6000f3fe6080604052600436106100705760003560e01c8063ad7a672f1161004e578063ad7a672f146100d3578063dfbf53ae146100fe578063e2eb41ff14610129578063f42463bf1461016857610070565b8063481c6a75146100755780635d495aea146100a05780639d4ff8ad146100b7575b600080fd5b34801561008157600080fd5b5061008a610193565b604051610097919061109a565b60405180910390f35b3480156100ac57600080fd5b506100b56101b7565b005b6100d160048036038101906100cc9190610c8c565b610489565b005b3480156100df57600080fd5b506100e8610738565b6040516100f591906111e7565b60405180910390f35b34801561010a57600080fd5b50610113610740565b604051610120919061109a565b60405180910390f35b34801561013557600080fd5b50610150600480360381019061014b9190610c63565b610764565b60405161015f939291906110d7565b60405180910390f35b34801561017457600080fd5b5061017d610843565b60405161018a91906110b5565b60405180910390f35b7f000000000000000000000000000000000000000000000000000000000000000081565b7f000000000000000000000000000000000000000000000000000000000000000073ffffffffffffffffffffffffffffffffffffffff163373ffffffffffffffffffffffffffffffffffffffff1614610245576040517f08c379a000000000000000000000000000000000000000000000000000000000815260040161023c90611155565b60405180910390fd5b6003600280549050101561028e576040517f08c379a000000000000000000000000000000000000000000000000000000000815260040161028590611115565b60405180910390fd5b60006002805490504260026040516020016102aa929190611072565b6040516020818303038152906040528051906020012060001c6102cd91906114ac565b905060028181548110610309577f4e487b7100000000000000000000000000000000000000000000000000000000600052603260045260246000fd5b9060005260206000200160009054906101000a900473ffffffffffffffffffffffffffffffffffffffff166000806101000a81548173ffffffffffffffffffffffffffffffffffffffff021916908373ffffffffffffffffffffffffffffffffffffffff160217905550600047905060008054906101000a900473ffffffffffffffffffffffffffffffffffffffff1673ffffffffffffffffffffffffffffffffffffffff166108fc829081150290604051600060405180830381858888f193505050501580156103de573d6000803e3d6000fd5b507fa5b7b1115f09d45b04e58eb649354eac0500613cb13879c786d2f618dd6ed393600160008060009054906101000a900473ffffffffffffffffffffffffffffffffffffffff1673ffffffffffffffffffffffffffffffffffffffff1673ffffffffffffffffffffffffffffffffffffffff1681526020019081526020016000208260405161046f9291906111b7565b60405180910390a1600260006104859190610ae9565b5050565b66038d7ea4c680003410156104d3576040517f08c379a00000000000000000000000000000000000000000000000000000000081526004016104ca90611135565b60405180910390fd5b600160003373ffffffffffffffffffffffffffffffffffffffff1673ffffffffffffffffffffffffffffffffffffffff16815260200190815260200160002060010160149054906101000a900460ff1615610563576040517f08c379a000000000000000000000000000000000000000000000000000000000815260040161055a90611175565b60405180910390fd5b60405180606001604052808281526020013373ffffffffffffffffffffffffffffffffffffffff16815260200160011515815250600160003373ffffffffffffffffffffffffffffffffffffffff1673ffffffffffffffffffffffffffffffffffffffff16815260200190815260200160002060008201518160000190805190602001906105f2929190610b0a565b5060208201518160010160006101000a81548173ffffffffffffffffffffffffffffffffffffffff021916908373ffffffffffffffffffffffffffffffffffffffff16021790555060408201518160010160146101000a81548160ff0219169083151502179055509050506002339080600181540180825580915050600190039060005260206000200160009091909190916101000a81548173ffffffffffffffffffffffffffffffffffffffff021916908373ffffffffffffffffffffffffffffffffffffffff1602179055507f435b969f2b976ad074979ed2288a195802d6b2e26f676bef605b9cc5b5ece23d600160003373ffffffffffffffffffffffffffffffffffffffff1673ffffffffffffffffffffffffffffffffffffffff16815260200190815260200160002060405161072d9190611195565b60405180910390a150565b600047905090565b60008054906101000a900473ffffffffffffffffffffffffffffffffffffffff1681565b6001602052806000526040600020600091509050806000018054610787906113c2565b80601f01602080910402602001604051908101604052809291908181526020018280546107b3906113c2565b80156108005780601f106107d557610100808354040283529160200191610800565b820191906000526020600020905b8154815290600101906020018083116107e357829003601f168201915b5050505050908060010160009054906101000a900473ffffffffffffffffffffffffffffffffffffffff16908060010160149054906101000a900460ff16905083565b60606000600280549050905060008167ffffffffffffffff811115610891577f4e487b7100000000000000000000000000000000000000000000000000000000600052604160045260246000fd5b6040519080825280602002602001820160405280156108ca57816020015b6108b7610b90565b8152602001906001900390816108af5790505b50905060005b82811015610ae0576001600060028381548110610916577f4e487b7100000000000000000000000000000000000000000000000000000000600052603260045260246000fd5b9060005260206000200160009054906101000a900473ffffffffffffffffffffffffffffffffffffffff1673ffffffffffffffffffffffffffffffffffffffff1673ffffffffffffffffffffffffffffffffffffffff168152602001908152602001600020604051806060016040529081600082018054610996906113c2565b80601f01602080910402602001604051908101604052809291908181526020018280546109c2906113c2565b8015610a0f5780601f106109e457610100808354040283529160200191610a0f565b820191906000526020600020905b8154815290600101906020018083116109f257829003601f168201915b505050505081526020016001820160009054906101000a900473ffffffffffffffffffffffffffffffffffffffff1673ffffffffffffffffffffffffffffffffffffffff1673ffffffffffffffffffffffffffffffffffffffff1681526020016001820160149054906101000a900460ff161515151581525050828281518110610ac2577f4e487b7100000000000000000000000000000000000000000000000000000000600052603260045260246000fd5b60200260200101819052508080610ad890611459565b9150506108d0565b50809250505090565b5080546000825590600052602060002090810190610b079190610bc9565b50565b828054610b16906113c2565b90600052602060002090601f016020900481019282610b385760008555610b7f565b82601f10610b5157805160ff1916838001178555610b7f565b82800160010185558215610b7f579182015b82811115610b7e578251825591602001919060010190610b63565b5b509050610b8c9190610bc9565b5090565b604051806060016040528060608152602001600073ffffffffffffffffffffffffffffffffffffffff1681526020016000151581525090565b5b80821115610be2576000816000905550600101610bca565b5090565b6000610bf9610bf484611227565b611202565b905082815260208101848484011115610c1157600080fd5b610c1c848285611380565b509392505050565b600081359050610c33816116ed565b92915050565b600082601f830112610c4a57600080fd5b8135610c5a848260208601610be6565b91505092915050565b600060208284031215610c7557600080fd5b6000610c8384828501610c24565b91505092915050565b600060208284031215610c9e57600080fd5b600082013567ffffffffffffffff811115610cb857600080fd5b610cc484828501610c39565b91505092915050565b6000610cd98383610d17565b60208301905092915050565b6000610cf18383610f9c565b905092915050565b610d0281611338565b82525050565b610d1181611338565b82525050565b610d2081611338565b82525050565b6000610d3182611292565b610d3b81856112cd565b9350610d4683611258565b8060005b83811015610d7e57610d5b82611599565b610d658882610ccd565b9750610d70836112b3565b925050600181019050610d4a565b5085935050505092915050565b6000610d968261129d565b610da081856112d8565b935083602082028501610db28561126d565b8060005b85811015610dee5784840389528151610dcf8582610ce5565b9450610dda836112c0565b925060208a01995050600181019050610db6565b50829750879550505050505092915050565b610e098161134a565b82525050565b610e188161134a565b82525050565b6000610e29826112a8565b610e3381856112e9565b9350610e4381856020860161138f565b610e4c816115ac565b840191505092915050565b6000610e62826112a8565b610e6c81856112fa565b9350610e7c81856020860161138f565b610e85816115ac565b840191505092915050565b60008154610e9d816113c2565b610ea781866112e9565b94506001821660008114610ec25760018114610ed457610f07565b60ff1983168652602086019350610f07565b610edd8561127d565b60005b83811015610eff57815481890152600182019150602081019050610ee0565b808801955050505b50505092915050565b6000610f1d602c836112fa565b9150610f28826115d7565b604082019050919050565b6000610f406023836112fa565b9150610f4b82611626565b604082019050919050565b6000610f636027836112fa565b9150610f6e82611675565b604082019050919050565b6000610f866018836112fa565b9150610f91826116c4565b602082019050919050565b60006060830160008301518482036000860152610fb98282610e1e565b9150506020830151610fce6020860182610cf9565b506040830151610fe16040860182610e00565b508091505092915050565b600060608301600080840185830360008701526110098382610e90565b9250506001840154905061101c816113f4565b6110296020870182610cf9565b506110338161140e565b6110406040870182610e00565b50819250505092915050565b61105581611376565b82525050565b61106c61106782611376565b6114a2565b82525050565b600061107e828561105b565b60208201915061108e8284610d26565b91508190509392505050565b60006020820190506110af6000830184610d08565b92915050565b600060208201905081810360008301526110cf8184610d8b565b905092915050565b600060608201905081810360008301526110f18186610e57565b90506111006020830185610d08565b61110d6040830184610e0f565b949350505050565b6000602082019050818103600083015261112e81610f10565b9050919050565b6000602082019050818103600083015261114e81610f33565b9050919050565b6000602082019050818103600083015261116e81610f56565b9050919050565b6000602082019050818103600083015261118e81610f79565b9050919050565b600060208201905081810360008301526111af8184610fec565b905092915050565b600060408201905081810360008301526111d18185610fec565b90506111e0602083018461104c565b9392505050565b60006020820190506111fc600083018461104c565b92915050565b600061120c61121d565b90506112188282611428565b919050565b6000604051905090565b600067ffffffffffffffff8211156112425761124161156a565b5b61124b826115ac565b9050602081019050919050565b60008190508160005260206000209050919050565b6000819050602082019050919050565b60008190508160005260206000209050919050565b600081549050919050565b600081519050919050565b600081519050919050565b6000600182019050919050565b6000602082019050919050565b600081905092915050565b600082825260208201905092915050565b600082825260208201905092915050565b600082825260208201905092915050565b600073ffffffffffffffffffffffffffffffffffffffff82169050919050565b600060ff82169050919050565b600061134382611356565b9050919050565b60008115159050919050565b600073ffffffffffffffffffffffffffffffffffffffff82169050919050565b6000819050919050565b82818337600083830152505050565b60005b838110156113ad578082015181840152602081019050611392565b838111156113bc576000848401525b50505050565b600060028204905060018216806113da57607f821691505b602082108114156113ee576113ed61153b565b5b50919050565b6000611407611402836115bd565b61130b565b9050919050565b600061142161141c836115ca565b61132b565b9050919050565b611431826115ac565b810181811067ffffffffffffffff821117156114505761144f61156a565b5b80604052505050565b600061146482611376565b91507fffffffffffffffffffffffffffffffffffffffffffffffffffffffffffffffff821415611497576114966114dd565b5b600182019050919050565b6000819050919050565b60006114b782611376565b91506114c283611376565b9250826114d2576114d161150c565b5b828206905092915050565b7f4e487b7100000000000000000000000000000000000000000000000000000000600052601160045260246000fd5b7f4e487b7100000000000000000000000000000000000000000000000000000000600052601260045260246000fd5b7f4e487b7100000000000000000000000000000000000000000000000000000000600052602260045260246000fd5b7f4e487b7100000000000000000000000000000000000000000000000000000000600052604160045260246000fd5b60006115a582546113f4565b9050919050565b6000601f19601f8301169050919050565b60008160001c9050919050565b60008160a01c9050919050565b7f4174206c65617374203320706c617965727320726571756972656420746f207060008201527f69636b20612077696e6e65720000000000000000000000000000000000000000602082015250565b7f4d696e696d756d20636f6e747269627574696f6e20697320302e30303120657460008201527f6865720000000000000000000000000000000000000000000000000000000000602082015250565b7f4f6e6c7920746865206d616e616765722063616e2063616c6c2074686973206660008201527f756e6374696f6e00000000000000000000000000000000000000000000000000602082015250565b7f596f752061726520616c7265616479206120706c617965720000000000000000600082015250565b6116f681611338565b811461170157600080fd5b5056fea2646970667358221220095f9d5bc84b3d4b2fae4ba89db608b7ca072961c8a5a01d8256ff6c5460821f64736f6c63430008040033",
  "immutableReferences": {
    "10": [
      {
        "length": 32,
        "start": 405
      },
      {
        "length": 32,
        "start": 441
      }
    ]
  },
  "source": "// contract Lottery {\n//     address public manager;\n//     address[] public players;\n\n//     constructor() {\n//         manager = msg.sender;\n//     }\n\n//     // Function to enter the lottery\n//     function enter() public payable validateAmount {\n//         require(players.length < 3, \"Maximum 3 players allowed\");\n//         require(!isPlayer(msg.sender), \"Player already entered\");\n//         players.push(msg.sender);\n//     }\n// function isPlayer(address player) public view returns (bool) {\n//     for (uint i = 0; i < players.length; i++) {\n//         if (players[i] == player) {\n//             return true;\n//         }\n//     }\n//     return false;\n// }\n//     // Function to pick a winner\n//     function pickWinner() public restricted {\n//         require(players.length > 0, \"No players to pick a winner\");\n//         address winner = players[random() % players.length];\n//         uint balance = address(this).balance;\n//         payable(winner).transfer(balance);\n//         players = new address[](0); // Reset the players array\n//     }\n\n//     // Function to get the current players\n//     function getPlayers() public view returns (address[] memory) {\n//         return players;\n//     }\n\n//     // Modifier to restrict access to the manager\n//     modifier restricted() {\n//         require(\n//             msg.sender == manager,\n//             \"Only the manager can call this function\"\n//         );\n//         _;\n//     }\n//     modifier validateAmount() {\n//         require(msg.value == 0.1 ether, \"Minimum contribution is 1 ether\");\n//         _;\n//     }\n\n//     // Function to generate a pseudo-random number based on the block's timestamp\n//     function random() private view returns (uint) {\n//         return\n//             uint(\n//                 keccak256(abi.encodePacked(block.timestamp, players, manager))\n//             );\n//     }\n\n//     // Receive function to accept Ether\n//     receive() external payable {\n//         // This function allows the contract to accept Ether without a specific function call.\n//     }\n// }\n\n// SPDX-License-Identifier: MIT\npragma solidity >=0.4.22 <0.8.21;\n\ncontract Lottery {\n    struct Player {\n        string playerName;\n        address playerAddress;\n        bool isPlayer;\n\n        \n    }\n\n    address public immutable manager;\n    address public  winner;\n    mapping(address => Player) public players;\n    address[] addresses;\n\n\n    // Define an event for when a player enters the lottery\n    event PlayerEntered(Player);\n\n    // Define an event for when a winner is picked\n    event WinnerPicked(Player, uint prizeAmount);\n\n    constructor() {\n        manager = msg.sender;\n    }\n\n    function enter(string memory playerName) public payable validateAmount {\n        require(!players[msg.sender].isPlayer, \"You are already a player\");\n\n        players[msg.sender] = Player(playerName,msg.sender, true);\n        addresses.push(msg.sender);\n\n\n        // Emit the PlayerEntered event when a player enters the lottery\n        emit PlayerEntered(players[msg.sender]);\n    }\n\n    function pickWinner() public restricted {\n        require(\n            addresses.length >= 3,\n            \"At least 3 players required to pick a winner\"\n        );\n\n        \n        uint index = uint(\n            keccak256(abi.encodePacked(block.timestamp, addresses))\n        ) % (addresses.length);\n\n        winner = addresses[index];\n\n        uint balance = address(this).balance;\n\n        // Transfer the prize amount to the winner\n        payable(winner).transfer(balance);\n\n\n\n        // Emit the WinnerPicked event when a winner is picked\n        emit WinnerPicked(players[winner], balance);\n\n        // Reset the players and addresses array\n        delete addresses;\n     \n    }\n\n    modifier restricted() {\n        require(\n            msg.sender == manager,\n            \"Only the manager can call this function\"\n        );\n        _;\n    }\n\n    modifier validateAmount() {\n        require(\n            msg.value >= 0.001 ether,\n            \"Minimum contribution is 0.001 ether\"\n        );\n        _;\n    }\n\n    function totalBalance() public view returns (uint) {\n        return address(this).balance;\n    }\n\n    function getTotalMapping() public view returns (Player[] memory) {\n        uint256 length = addresses.length;\n        Player[] memory playerData = new Player[](length);\n        for (uint256 i = 0; i < length; i++) {\n            playerData[i] = players[addresses[i]];\n        }\n        return playerData;\n    }\n\n  \n}\n",
  "sourcePath": "/home/farman/dapps/lottery/backend/contracts/lottery.sol",
  "compiler": {
    "name": "solc",
    "version": "0.8.4+commit.c7e474f2.Emscripten.clang"
  },
  "schemaVersion": "3.4.16",
  "updatedAt": "2023-11-09T18:31:18.317Z",
  "networkType": "ethereum",
  "devdoc": {
    "kind": "dev",
    "methods": {},
    "version": 1
  },
  "userdoc": {
    "kind": "user",
    "methods": {},
    "version": 1
  }
}