{
  "contractName": "Lottery",
  "abi": [
    {
      "inputs": [],
      "stateMutability": "nonpayable",
      "type": "constructor"
    },
    {
      "anonymous": false,
      "inputs": [
        {
          "indexed": true,
          "internalType": "address",
          "name": "playerAddress",
          "type": "address"
        },
        {
          "indexed": false,
          "internalType": "string",
          "name": "playerName",
          "type": "string"
        }
      ],
      "name": "PlayerEntered",
      "type": "event"
    },
    {
      "anonymous": false,
      "inputs": [
        {
          "indexed": false,
          "internalType": "address",
          "name": "winnerAddress",
          "type": "address"
        },
        {
          "indexed": false,
          "internalType": "uint256",
          "name": "prizeAmount",
          "type": "uint256"
        }
      ],
      "name": "WinnerPicked",
      "type": "event"
    },
    {
      "inputs": [],
      "name": "manager",
      "outputs": [
        {
          "internalType": "address",
          "name": "",
          "type": "address"
        }
      ],
      "stateMutability": "view",
      "type": "function",
      "constant": true
    },
    {
      "inputs": [
        {
          "internalType": "address",
          "name": "",
          "type": "address"
        }
      ],
      "name": "players",
      "outputs": [
        {
          "internalType": "string",
          "name": "playerName",
          "type": "string"
        },
        {
          "internalType": "bool",
          "name": "isPlayer",
          "type": "bool"
        },
        {
          "internalType": "bool",
          "name": "isWinner",
          "type": "bool"
        }
      ],
      "stateMutability": "view",
      "type": "function",
      "constant": true
    },
    {
      "inputs": [],
      "name": "totalPlayers",
      "outputs": [
        {
          "internalType": "uint256",
          "name": "",
          "type": "uint256"
        }
      ],
      "stateMutability": "view",
      "type": "function",
      "constant": true
    },
    {
      "inputs": [
        {
          "internalType": "string",
          "name": "playerName",
          "type": "string"
        }
      ],
      "name": "enter",
      "outputs": [],
      "stateMutability": "payable",
      "type": "function",
      "payable": true
    },
    {
      "inputs": [],
      "name": "pickWinner",
      "outputs": [],
      "stateMutability": "nonpayable",
      "type": "function"
    },
    {
      "inputs": [],
      "name": "totalBalance",
      "outputs": [
        {
          "internalType": "uint256",
          "name": "",
          "type": "uint256"
        }
      ],
      "stateMutability": "view",
      "type": "function",
      "constant": true
    },
    {
      "inputs": [],
      "name": "getTotalMapping",
      "outputs": [
        {
          "components": [
            {
              "internalType": "string",
              "name": "playerName",
              "type": "string"
            },
            {
              "internalType": "bool",
              "name": "isPlayer",
              "type": "bool"
            },
            {
              "internalType": "bool",
              "name": "isWinner",
              "type": "bool"
            }
          ],
          "internalType": "struct Lottery.Player[]",
          "name": "",
          "type": "tuple[]"
        }
      ],
      "stateMutability": "view",
      "type": "function",
      "constant": true
    }
  ],
  "bytecode": "0x60a060405234801561001057600080fd5b503373ffffffffffffffffffffffffffffffffffffffff1660808173ffffffffffffffffffffffffffffffffffffffff1660601b8152505060805160601c61152a61006d6000396000818161019501526101b9015261152a6000f3fe6080604052600436106100705760003560e01c8063ad7a672f1161004e578063ad7a672f146100d3578063e2eb41ff146100fe578063f42463bf1461013d578063f60cdcf61461016857610070565b8063481c6a75146100755780635d495aea146100a05780639d4ff8ad146100b7575b600080fd5b34801561008157600080fd5b5061008a610193565b6040516100979190610e84565b60405180910390f35b3480156100ac57600080fd5b506100b56101b7565b005b6100d160048036038101906100cc9190610b65565b61042c565b005b3480156100df57600080fd5b506100e8610692565b6040516100f59190610fca565b60405180910390f35b34801561010a57600080fd5b5061012560048036038101906101209190610b3c565b61069a565b60405161013493929190610f0c565b60405180910390f35b34801561014957600080fd5b50610152610766565b60405161015f9190610ec8565b60405180910390f35b34801561017457600080fd5b5061017d6109d0565b60405161018a9190610fca565b60405180910390f35b7f000000000000000000000000000000000000000000000000000000000000000081565b7f000000000000000000000000000000000000000000000000000000000000000073ffffffffffffffffffffffffffffffffffffffff163373ffffffffffffffffffffffffffffffffffffffff1614610245576040517f08c379a000000000000000000000000000000000000000000000000000000000815260040161023c90610f8a565b60405180910390fd5b6003600254101561028b576040517f08c379a000000000000000000000000000000000000000000000000000000000815260040161028290610f4a565b60405180910390fd5b60006002544260016040516020016102a4929190610e5c565b6040516020818303038152906040528051906020012060001c6102c791906112a9565b9050600060018281548110610305577f4e487b7100000000000000000000000000000000000000000000000000000000600052603260045260246000fd5b9060005260206000200160009054906101000a900473ffffffffffffffffffffffffffffffffffffffff16905060004790508173ffffffffffffffffffffffffffffffffffffffff166108fc829081150290604051600060405180830381858888f1935050505015801561037d573d6000803e3d6000fd5b5060016000808473ffffffffffffffffffffffffffffffffffffffff1673ffffffffffffffffffffffffffffffffffffffff16815260200190815260200160002060010160016101000a81548160ff0219169083151502179055507f64791dbae5677392ba76761a5273633cec8f1d9d8cfe808da7bac6ef16a880be8282604051610409929190610e9f565b60405180910390a16001600061041f91906109d6565b6000600281905550505050565b66038d7ea4c68000341015610476576040517f08c379a000000000000000000000000000000000000000000000000000000000815260040161046d90610f6a565b60405180910390fd5b6000803373ffffffffffffffffffffffffffffffffffffffff1673ffffffffffffffffffffffffffffffffffffffff16815260200190815260200160002060010160009054906101000a900460ff1615610505576040517f08c379a00000000000000000000000000000000000000000000000000000000081526004016104fc90610faa565b60405180910390fd5b6040518060600160405280828152602001600115158152602001600015158152506000803373ffffffffffffffffffffffffffffffffffffffff1673ffffffffffffffffffffffffffffffffffffffff16815260200190815260200160002060008201518160000190805190602001906105809291906109f7565b5060208201518160010160006101000a81548160ff02191690831515021790555060408201518160010160016101000a81548160ff0219169083151502179055509050506001339080600181540180825580915050600190039060005260206000200160009091909190916101000a81548173ffffffffffffffffffffffffffffffffffffffff021916908373ffffffffffffffffffffffffffffffffffffffff16021790555060016002600082825461063a91906110d9565b925050819055503373ffffffffffffffffffffffffffffffffffffffff167fe0055fa6225e5e17f2c753bc6d708730b0c2d15ca8f11ad1c1ac6c600941490d826040516106879190610eea565b60405180910390a250565b600047905090565b60006020528060005260406000206000915090508060000180546106bd906111d9565b80601f01602080910402602001604051908101604052809291908181526020018280546106e9906111d9565b80156107365780601f1061070b57610100808354040283529160200191610736565b820191906000526020600020905b81548152906001019060200180831161071957829003601f168201915b5050505050908060010160009054906101000a900460ff16908060010160019054906101000a900460ff16905083565b60606000600180549050905060008167ffffffffffffffff8111156107b4577f4e487b7100000000000000000000000000000000000000000000000000000000600052604160045260246000fd5b6040519080825280602002602001820160405280156107ed57816020015b6107da610a7d565b8152602001906001900390816107d25790505b50905060005b828110156109c75760008060018381548110610838577f4e487b7100000000000000000000000000000000000000000000000000000000600052603260045260246000fd5b9060005260206000200160009054906101000a900473ffffffffffffffffffffffffffffffffffffffff1673ffffffffffffffffffffffffffffffffffffffff1673ffffffffffffffffffffffffffffffffffffffff1681526020019081526020016000206040518060600160405290816000820180546108b8906111d9565b80601f01602080910402602001604051908101604052809291908181526020018280546108e4906111d9565b80156109315780601f1061090657610100808354040283529160200191610931565b820191906000526020600020905b81548152906001019060200180831161091457829003601f168201915b505050505081526020016001820160009054906101000a900460ff161515151581526020016001820160019054906101000a900460ff1615151515815250508282815181106109a9577f4e487b7100000000000000000000000000000000000000000000000000000000600052603260045260246000fd5b602002602001018190525080806109bf90611256565b9150506107f3565b50809250505090565b60025481565b50805460008255906000526020600020908101906109f49190610aa2565b50565b828054610a03906111d9565b90600052602060002090601f016020900481019282610a255760008555610a6c565b82601f10610a3e57805160ff1916838001178555610a6c565b82800160010185558215610a6c579182015b82811115610a6b578251825591602001919060010190610a50565b5b509050610a799190610aa2565b5090565b6040518060600160405280606081526020016000151581526020016000151581525090565b5b80821115610abb576000816000905550600101610aa3565b5090565b6000610ad2610acd8461100a565b610fe5565b905082815260208101848484011115610aea57600080fd5b610af5848285611197565b509392505050565b600081359050610b0c816114dd565b92915050565b600082601f830112610b2357600080fd5b8135610b33848260208601610abf565b91505092915050565b600060208284031215610b4e57600080fd5b6000610b5c84828501610afd565b91505092915050565b600060208284031215610b7757600080fd5b600082013567ffffffffffffffff811115610b9157600080fd5b610b9d84828501610b12565b91505092915050565b6000610bb28383610be1565b60208301905092915050565b6000610bca8383610de6565b905092915050565b610bdb8161114f565b82525050565b610bea8161114f565b82525050565b6000610bfb82611060565b610c05818561109b565b9350610c108361103b565b8060005b83811015610c4857610c2582611396565b610c2f8882610ba6565b9750610c3a83611081565b925050600181019050610c14565b5085935050505092915050565b6000610c608261106b565b610c6a81856110a6565b935083602082028501610c7c85611050565b8060005b85811015610cb85784840389528151610c998582610bbe565b9450610ca48361108e565b925060208a01995050600181019050610c80565b50829750879550505050505092915050565b610cd381611161565b82525050565b610ce281611161565b82525050565b6000610cf382611076565b610cfd81856110b7565b9350610d0d8185602086016111a6565b610d16816113a9565b840191505092915050565b6000610d2c82611076565b610d3681856110c8565b9350610d468185602086016111a6565b610d4f816113a9565b840191505092915050565b6000610d67602c836110c8565b9150610d72826113c7565b604082019050919050565b6000610d8a6023836110c8565b9150610d9582611416565b604082019050919050565b6000610dad6027836110c8565b9150610db882611465565b604082019050919050565b6000610dd06010836110c8565b9150610ddb826114b4565b602082019050919050565b60006060830160008301518482036000860152610e038282610ce8565b9150506020830151610e186020860182610cca565b506040830151610e2b6040860182610cca565b508091505092915050565b610e3f8161118d565b82525050565b610e56610e518261118d565b61129f565b82525050565b6000610e688285610e45565b602082019150610e788284610bf0565b91508190509392505050565b6000602082019050610e996000830184610bd2565b92915050565b6000604082019050610eb46000830185610bd2565b610ec16020830184610e36565b9392505050565b60006020820190508181036000830152610ee28184610c55565b905092915050565b60006020820190508181036000830152610f048184610d21565b905092915050565b60006060820190508181036000830152610f268186610d21565b9050610f356020830185610cd9565b610f426040830184610cd9565b949350505050565b60006020820190508181036000830152610f6381610d5a565b9050919050565b60006020820190508181036000830152610f8381610d7d565b9050919050565b60006020820190508181036000830152610fa381610da0565b9050919050565b60006020820190508181036000830152610fc381610dc3565b9050919050565b6000602082019050610fdf6000830184610e36565b92915050565b6000610fef611000565b9050610ffb8282611225565b919050565b6000604051905090565b600067ffffffffffffffff82111561102557611024611367565b5b61102e826113a9565b9050602081019050919050565b60008190508160005260206000209050919050565b6000819050602082019050919050565b600081549050919050565b600081519050919050565b600081519050919050565b6000600182019050919050565b6000602082019050919050565b600081905092915050565b600082825260208201905092915050565b600082825260208201905092915050565b600082825260208201905092915050565b60006110e48261118d565b91506110ef8361118d565b9250827fffffffffffffffffffffffffffffffffffffffffffffffffffffffffffffffff03821115611124576111236112da565b5b828201905092915050565b600073ffffffffffffffffffffffffffffffffffffffff82169050919050565b600061115a8261116d565b9050919050565b60008115159050919050565b600073ffffffffffffffffffffffffffffffffffffffff82169050919050565b6000819050919050565b82818337600083830152505050565b60005b838110156111c45780820151818401526020810190506111a9565b838111156111d3576000848401525b50505050565b600060028204905060018216806111f157607f821691505b6020821081141561120557611204611338565b5b50919050565b600061121e611219836113ba565b61112f565b9050919050565b61122e826113a9565b810181811067ffffffffffffffff8211171561124d5761124c611367565b5b80604052505050565b60006112618261118d565b91507fffffffffffffffffffffffffffffffffffffffffffffffffffffffffffffffff821415611294576112936112da565b5b600182019050919050565b6000819050919050565b60006112b48261118d565b91506112bf8361118d565b9250826112cf576112ce611309565b5b828206905092915050565b7f4e487b7100000000000000000000000000000000000000000000000000000000600052601160045260246000fd5b7f4e487b7100000000000000000000000000000000000000000000000000000000600052601260045260246000fd5b7f4e487b7100000000000000000000000000000000000000000000000000000000600052602260045260246000fd5b7f4e487b7100000000000000000000000000000000000000000000000000000000600052604160045260246000fd5b60006113a2825461120b565b9050919050565b6000601f19601f8301169050919050565b60008160001c9050919050565b7f4174206c65617374203320706c617965727320726571756972656420746f207060008201527f69636b20612077696e6e65720000000000000000000000000000000000000000602082015250565b7f4d696e696d756d20636f6e747269627574696f6e20697320302e30303120657460008201527f6865720000000000000000000000000000000000000000000000000000000000602082015250565b7f4f6e6c7920746865206d616e616765722063616e2063616c6c2074686973206660008201527f756e6374696f6e00000000000000000000000000000000000000000000000000602082015250565b7f416c7265616479206120706c6179657200000000000000000000000000000000600082015250565b6114e68161114f565b81146114f157600080fd5b5056fea2646970667358221220c0ae46d99fd16e667cda81dc4865181378fd4cc05b963c41a64a462578d224ab64736f6c63430008040033",
  "immutableReferences": {
    "10": [
      {
        "length": 32,
        "start": 405
      },
      {
        "length": 32,
        "start": 441
      }
    ]
  },
  "source": "// contract Lottery {\r\n//     address public manager;\r\n//     address[] public players;\r\n\r\n//     constructor() {\r\n//         manager = msg.sender;\r\n//     }\r\n\r\n//     // Function to enter the lottery\r\n//     function enter() public payable validateAmount {\r\n//         require(players.length < 3, \"Maximum 3 players allowed\");\r\n//         require(!isPlayer(msg.sender), \"Player already entered\");\r\n//         players.push(msg.sender);\r\n//     }\r\n// function isPlayer(address player) public view returns (bool) {\r\n//     for (uint i = 0; i < players.length; i++) {\r\n//         if (players[i] == player) {\r\n//             return true;\r\n//         }\r\n//     }\r\n//     return false;\r\n// }\r\n//     // Function to pick a winner\r\n//     function pickWinner() public restricted {\r\n//         require(players.length > 0, \"No players to pick a winner\");\r\n//         address winner = players[random() % players.length];\r\n//         uint balance = address(this).balance;\r\n//         payable(winner).transfer(balance);\r\n//         players = new address[](0); // Reset the players array\r\n//     }\r\n\r\n//     // Function to get the current players\r\n//     function getPlayers() public view returns (address[] memory) {\r\n//         return players;\r\n//     }\r\n\r\n//     // Modifier to restrict access to the manager\r\n//     modifier restricted() {\r\n//         require(\r\n//             msg.sender == manager,\r\n//             \"Only the manager can call this function\"\r\n//         );\r\n//         _;\r\n//     }\r\n//     modifier validateAmount() {\r\n//         require(msg.value == 0.1 ether, \"Minimum contribution is 1 ether\");\r\n//         _;\r\n//     }\r\n\r\n//     // Function to generate a pseudo-random number based on the block's timestamp\r\n//     function random() private view returns (uint) {\r\n//         return\r\n//             uint(\r\n//                 keccak256(abi.encodePacked(block.timestamp, players, manager))\r\n//             );\r\n//     }\r\n\r\n//     // Receive function to accept Ether\r\n//     receive() external payable {\r\n//         // This function allows the contract to accept Ether without a specific function call.\r\n//     }\r\n// }\r\n\r\n// SPDX-License-Identifier: MIT\r\npragma solidity >=0.4.22 <0.8.21;\r\n\r\ncontract Lottery {\r\n    struct Player {\r\n        string playerName;\r\n        bool isPlayer;\r\n        bool isWinner;\r\n    }\r\n\r\n    address public immutable manager;\r\n    mapping(address => Player) public players;\r\n    address[] addresses;\r\n\r\n    uint public totalPlayers;\r\n\r\n    // Define an event for when a player enters the lottery\r\n    event PlayerEntered(address indexed playerAddress, string playerName);\r\n\r\n    // Define an event for when a winner is picked\r\n    event WinnerPicked(address winnerAddress, uint prizeAmount);\r\n\r\n    constructor() {\r\n        manager = msg.sender;\r\n    }\r\n\r\n    function enter(string memory playerName) public payable validateAmount {\r\n        require(!players[msg.sender].isPlayer, \"Already a player\");\r\n\r\n        players[msg.sender] = Player(playerName, true, false);\r\n        addresses.push(msg.sender);\r\n\r\n        totalPlayers += 1;\r\n\r\n        // Emit the PlayerEntered event when a player enters the lottery\r\n        emit PlayerEntered(msg.sender, playerName);\r\n    }\r\n\r\n    function pickWinner() public restricted {\r\n        require(\r\n            totalPlayers >= 3,\r\n            \"At least 3 players required to pick a winner\"\r\n        );\r\n\r\n        // Generate a pseudo-random number based on the block's timestamp\r\n        uint index = uint(\r\n            keccak256(abi.encodePacked(block.timestamp, addresses))\r\n        ) % totalPlayers;\r\n\r\n        address winnerAddress = addresses[index];\r\n\r\n        uint balance = address(this).balance;\r\n\r\n        // Transfer the prize amount to the winner\r\n        payable(winnerAddress).transfer(balance);\r\n\r\n        // Mark the winner\r\n        players[winnerAddress].isWinner = true;\r\n\r\n        // Emit the WinnerPicked event when a winner is picked\r\n        emit WinnerPicked(winnerAddress, balance);\r\n\r\n        // Reset the players and addresses array\r\n        delete addresses;\r\n        totalPlayers = 0;\r\n    }\r\n\r\n    modifier restricted() {\r\n        require(\r\n            msg.sender == manager,\r\n            \"Only the manager can call this function\"\r\n        );\r\n        _;\r\n    }\r\n\r\n    modifier validateAmount() {\r\n        require(\r\n            msg.value >= 0.001 ether,\r\n            \"Minimum contribution is 0.001 ether\"\r\n        );\r\n        _;\r\n    }\r\n\r\n    function totalBalance() public view returns (uint) {\r\n        return address(this).balance;\r\n    }\r\n\r\n    function getTotalMapping() public view returns (Player[] memory) {\r\n        uint256 length = addresses.length;\r\n        Player[] memory playerData = new Player[](length);\r\n        for (uint256 i = 0; i < length; i++) {\r\n            playerData[i] = players[addresses[i]];\r\n        }\r\n        return playerData;\r\n    }\r\n}\r\n",
  "sourcePath": "C:\\Users\\Hp\\Desktop\\dapp_lottery\\backend\\contracts\\lottery.sol",
  "compiler": {
    "name": "solc",
    "version": "0.8.4+commit.c7e474f2.Emscripten.clang"
  },
  "schemaVersion": "3.4.16",
  "updatedAt": "2023-11-01T07:22:02.959Z",
  "networkType": "ethereum",
  "devdoc": {
    "kind": "dev",
    "methods": {},
    "version": 1
  },
  "userdoc": {
    "kind": "user",
    "methods": {},
    "version": 1
  }
}