{
  "contractName": "Lottery",
  "abi": [
    {
      "inputs": [],
      "stateMutability": "nonpayable",
      "type": "constructor"
    },
    {
      "inputs": [],
      "name": "manager",
      "outputs": [
        {
          "internalType": "address",
          "name": "",
          "type": "address"
        }
      ],
      "stateMutability": "view",
      "type": "function",
      "constant": true
    },
    {
      "inputs": [
        {
          "internalType": "uint256",
          "name": "",
          "type": "uint256"
        }
      ],
      "name": "players",
      "outputs": [
        {
          "internalType": "address",
          "name": "",
          "type": "address"
        }
      ],
      "stateMutability": "view",
      "type": "function",
      "constant": true
    },
    {
      "stateMutability": "payable",
      "type": "receive",
      "payable": true
    },
    {
      "inputs": [],
      "name": "enter",
      "outputs": [],
      "stateMutability": "payable",
      "type": "function",
      "payable": true
    },
    {
      "inputs": [
        {
          "internalType": "address",
          "name": "player",
          "type": "address"
        }
      ],
      "name": "isPlayer",
      "outputs": [
        {
          "internalType": "bool",
          "name": "",
          "type": "bool"
        }
      ],
      "stateMutability": "view",
      "type": "function",
      "constant": true
    },
    {
      "inputs": [],
      "name": "pickWinner",
      "outputs": [],
      "stateMutability": "nonpayable",
      "type": "function"
    },
    {
      "inputs": [],
      "name": "getPlayers",
      "outputs": [
        {
          "internalType": "address[]",
          "name": "",
          "type": "address[]"
        }
      ],
      "stateMutability": "view",
      "type": "function",
      "constant": true
    }
  ],
  "bytecode": "0x608060405234801561001057600080fd5b50336000806101000a81548173ffffffffffffffffffffffffffffffffffffffff021916908373ffffffffffffffffffffffffffffffffffffffff160217905550610ecb806100606000396000f3fe6080604052600436106100595760003560e01c806309c95e1014610065578063481c6a75146100a25780635d495aea146100cd5780638b5b9ccc146100e4578063e97dcb621461010f578063f71d96cb1461011957610060565b3661006057005b600080fd5b34801561007157600080fd5b5061008c600480360381019061008791906107ae565b610156565b6040516100999190610a82565b60405180910390f35b3480156100ae57600080fd5b506100b761022b565b6040516100c49190610a45565b60405180910390f35b3480156100d957600080fd5b506100e261024f565b005b3480156100f057600080fd5b506100f961047a565b6040516101069190610a60565b60405180910390f35b610117610508565b005b34801561012557600080fd5b50610140600480360381019061013b91906107d7565b610648565b60405161014d9190610a45565b60405180910390f35b600080600090505b600180549050811015610220578273ffffffffffffffffffffffffffffffffffffffff16600182815481106101bc577f4e487b7100000000000000000000000000000000000000000000000000000000600052603260045260246000fd5b9060005260206000200160009054906101000a900473ffffffffffffffffffffffffffffffffffffffff1673ffffffffffffffffffffffffffffffffffffffff16141561020d576001915050610226565b808061021890610c41565b91505061015e565b50600090505b919050565b60008054906101000a900473ffffffffffffffffffffffffffffffffffffffff1681565b60008054906101000a900473ffffffffffffffffffffffffffffffffffffffff1673ffffffffffffffffffffffffffffffffffffffff163373ffffffffffffffffffffffffffffffffffffffff16146102dd576040517f08c379a00000000000000000000000000000000000000000000000000000000081526004016102d490610abd565b60405180910390fd5b600060018054905011610325576040517f08c379a000000000000000000000000000000000000000000000000000000000815260040161031c90610b1d565b60405180910390fd5b600060018080549050610336610687565b6103409190610cb8565b81548110610377577f4e487b7100000000000000000000000000000000000000000000000000000000600052603260045260246000fd5b9060005260206000200160009054906101000a900473ffffffffffffffffffffffffffffffffffffffff16905060004790508173ffffffffffffffffffffffffffffffffffffffff166108fc829081150290604051600060405180830381858888f193505050501580156103ef573d6000803e3d6000fd5b50600067ffffffffffffffff811115610431577f4e487b7100000000000000000000000000000000000000000000000000000000600052604160045260246000fd5b60405190808252806020026020018201604052801561045f5781602001602082028036833780820191505090505b50600190805190602001906104759291906106dd565b505050565b606060018054806020026020016040519081016040528092919081815260200182805480156104fe57602002820191906000526020600020905b8160009054906101000a900473ffffffffffffffffffffffffffffffffffffffff1673ffffffffffffffffffffffffffffffffffffffff16815260200190600101908083116104b4575b5050505050905090565b67016345785d8a00003414610552576040517f08c379a000000000000000000000000000000000000000000000000000000000815260040161054990610afd565b60405180910390fd5b60036001805490501061059a576040517f08c379a000000000000000000000000000000000000000000000000000000000815260040161059190610a9d565b60405180910390fd5b6105a333610156565b156105e3576040517f08c379a00000000000000000000000000000000000000000000000000000000081526004016105da90610add565b60405180910390fd5b6001339080600181540180825580915050600190039060005260206000200160009091909190916101000a81548173ffffffffffffffffffffffffffffffffffffffff021916908373ffffffffffffffffffffffffffffffffffffffff160217905550565b6001818154811061065857600080fd5b906000526020600020016000915054906101000a900473ffffffffffffffffffffffffffffffffffffffff1681565b600042600160008054906101000a900473ffffffffffffffffffffffffffffffffffffffff166040516020016106bf93929190610a0c565b6040516020818303038152906040528051906020012060001c905090565b828054828255906000526020600020908101928215610756579160200282015b828111156107555782518260006101000a81548173ffffffffffffffffffffffffffffffffffffffff021916908373ffffffffffffffffffffffffffffffffffffffff160217905550916020019190600101906106fd565b5b5090506107639190610767565b5090565b5b80821115610780576000816000905550600101610768565b5090565b60008135905061079381610e67565b92915050565b6000813590506107a881610e7e565b92915050565b6000602082840312156107c057600080fd5b60006107ce84828501610784565b91505092915050565b6000602082840312156107e957600080fd5b60006107f784828501610799565b91505092915050565b600061080c8383610830565b60208301905092915050565b6000610824838361084e565b60208301905092915050565b61083981610bdf565b82525050565b61084881610bdf565b82525050565b61085781610bdf565b82525050565b61086e61086982610bdf565b610c8a565b82525050565b600061087f82610b62565b6108898185610b92565b935061089483610b3d565b8060005b838110156108c55781516108ac8882610800565b97506108b783610b78565b925050600181019050610898565b5085935050505092915050565b60006108dd82610b6d565b6108e78185610ba3565b93506108f283610b4d565b8060005b8381101561092a5761090782610d47565b6109118882610818565b975061091c83610b85565b9250506001810190506108f6565b5085935050505092915050565b61094081610bf1565b82525050565b6000610953601983610bae565b915061095e82610d74565b602082019050919050565b6000610976602783610bae565b915061098182610d9d565b604082019050919050565b6000610999601683610bae565b91506109a482610dec565b602082019050919050565b60006109bc601f83610bae565b91506109c782610e15565b602082019050919050565b60006109df601b83610bae565b91506109ea82610e3e565b602082019050919050565b610a06610a0182610c1d565b610cae565b82525050565b6000610a1882866109f5565b602082019150610a2882856108d2565b9150610a34828461085d565b601482019150819050949350505050565b6000602082019050610a5a600083018461083f565b92915050565b60006020820190508181036000830152610a7a8184610874565b905092915050565b6000602082019050610a976000830184610937565b92915050565b60006020820190508181036000830152610ab681610946565b9050919050565b60006020820190508181036000830152610ad681610969565b9050919050565b60006020820190508181036000830152610af68161098c565b9050919050565b60006020820190508181036000830152610b16816109af565b9050919050565b60006020820190508181036000830152610b36816109d2565b9050919050565b6000819050602082019050919050565b60008190508160005260206000209050919050565b600081519050919050565b600081549050919050565b6000602082019050919050565b6000600182019050919050565b600082825260208201905092915050565b600081905092915050565b600082825260208201905092915050565b600073ffffffffffffffffffffffffffffffffffffffff82169050919050565b6000610bea82610bfd565b9050919050565b60008115159050919050565b600073ffffffffffffffffffffffffffffffffffffffff82169050919050565b6000819050919050565b6000610c3a610c3583610d67565b610bbf565b9050919050565b6000610c4c82610c1d565b91507fffffffffffffffffffffffffffffffffffffffffffffffffffffffffffffffff821415610c7f57610c7e610ce9565b5b600182019050919050565b6000610c9582610c9c565b9050919050565b6000610ca782610d5a565b9050919050565b6000819050919050565b6000610cc382610c1d565b9150610cce83610c1d565b925082610cde57610cdd610d18565b5b828206905092915050565b7f4e487b7100000000000000000000000000000000000000000000000000000000600052601160045260246000fd5b7f4e487b7100000000000000000000000000000000000000000000000000000000600052601260045260246000fd5b6000610d538254610c27565b9050919050565b60008160601b9050919050565b60008160001c9050919050565b7f4d6178696d756d203320706c617965727320616c6c6f77656400000000000000600082015250565b7f4f6e6c7920746865206d616e616765722063616e2063616c6c2074686973206660008201527f756e6374696f6e00000000000000000000000000000000000000000000000000602082015250565b7f506c6179657220616c726561647920656e746572656400000000000000000000600082015250565b7f4d696e696d756d20636f6e747269627574696f6e206973203120657468657200600082015250565b7f4e6f20706c617965727320746f207069636b20612077696e6e65720000000000600082015250565b610e7081610bdf565b8114610e7b57600080fd5b50565b610e8781610c1d565b8114610e9257600080fd5b5056fea2646970667358221220ad28229fa47ccab0cbfa32a511b06eca0d200405b8c3658f054b7cabe34bdcf864736f6c63430008040033",
  "immutableReferences": {},
  "source": "// SPDX-License-Identifier: MIT\npragma solidity >=0.4.22 <0.8.21;\n\ncontract Lottery {\n    address public manager;\n    address[] public players;\n\n    constructor() {\n        manager = msg.sender;\n    }\n\n    // Function to enter the lottery\n    function enter() public payable validateAmount {\n        require(players.length < 3, \"Maximum 3 players allowed\");\n        require(!isPlayer(msg.sender), \"Player already entered\");\n        players.push(msg.sender);\n    }\nfunction isPlayer(address player) public view returns (bool) {\n    for (uint i = 0; i < players.length; i++) {\n        if (players[i] == player) {\n            return true;\n        }\n    }\n    return false;\n}\n    // Function to pick a winner\n    function pickWinner() public restricted {\n        require(players.length > 0, \"No players to pick a winner\");\n        address winner = players[random() % players.length];\n        uint balance = address(this).balance;\n        payable(winner).transfer(balance);\n        players = new address[](0); // Reset the players array\n    }\n\n    // Function to get the current players\n    function getPlayers() public view returns (address[] memory) {\n        return players;\n    }\n\n    // Modifier to restrict access to the manager\n    modifier restricted() {\n        require(\n            msg.sender == manager,\n            \"Only the manager can call this function\"\n        );\n        _;\n    }\n    modifier validateAmount() {\n        require(msg.value == 0.1 ether, \"Minimum contribution is 1 ether\");\n        _;\n    }\n\n    // Function to generate a pseudo-random number based on the block's timestamp\n    function random() private view returns (uint) {\n        return\n            uint(\n                keccak256(abi.encodePacked(block.timestamp, players, manager))\n            );\n    }\n\n    // Receive function to accept Ether\n    receive() external payable {\n        // This function allows the contract to accept Ether without a specific function call.\n    }\n}\n",
  "sourcePath": "/home/farman/dapps/lottery/backend/contracts/lottery.sol",
  "compiler": {
    "name": "solc",
    "version": "0.8.4+commit.c7e474f2.Emscripten.clang"
  },
  "schemaVersion": "3.4.16",
  "updatedAt": "2023-10-27T19:11:40.296Z",
  "networkType": "ethereum",
  "devdoc": {
    "kind": "dev",
    "methods": {},
    "version": 1
  },
  "userdoc": {
    "kind": "user",
    "methods": {},
    "version": 1
  }
}