{
  "contractName": "Lottery",
  "abi": [
    {
      "inputs": [],
      "stateMutability": "nonpayable",
      "type": "constructor"
    },
    {
      "inputs": [],
      "name": "manager",
      "outputs": [
        {
          "internalType": "address",
          "name": "",
          "type": "address"
        }
      ],
      "stateMutability": "view",
      "type": "function",
      "constant": true
    },
    {
      "inputs": [
        {
          "internalType": "address",
          "name": "",
          "type": "address"
        }
      ],
      "name": "players",
      "outputs": [
        {
          "internalType": "string",
          "name": "playerName",
          "type": "string"
        },
        {
          "internalType": "bool",
          "name": "isPlayer",
          "type": "bool"
        },
        {
          "internalType": "bool",
          "name": "isWinner",
          "type": "bool"
        }
      ],
      "stateMutability": "view",
      "type": "function",
      "constant": true
    },
    {
      "inputs": [],
      "name": "totalPlayers",
      "outputs": [
        {
          "internalType": "uint256",
          "name": "",
          "type": "uint256"
        }
      ],
      "stateMutability": "view",
      "type": "function",
      "constant": true
    },
    {
      "inputs": [
        {
          "internalType": "string",
          "name": "playerName",
          "type": "string"
        }
      ],
      "name": "enter",
      "outputs": [],
      "stateMutability": "payable",
      "type": "function",
      "payable": true
    },
    {
      "inputs": [],
      "name": "pickWinner",
      "outputs": [],
      "stateMutability": "nonpayable",
      "type": "function"
    },
    {
      "inputs": [],
      "name": "totalBalance",
      "outputs": [
        {
          "internalType": "uint256",
          "name": "",
          "type": "uint256"
        }
      ],
      "stateMutability": "view",
      "type": "function",
      "constant": true
    },
    {
      "inputs": [],
      "name": "getTotalMapping",
      "outputs": [
        {
          "components": [
            {
              "internalType": "string",
              "name": "playerName",
              "type": "string"
            },
            {
              "internalType": "bool",
              "name": "isPlayer",
              "type": "bool"
            },
            {
              "internalType": "bool",
              "name": "isWinner",
              "type": "bool"
            }
          ],
          "internalType": "struct Lottery.Player[]",
          "name": "",
          "type": "tuple[]"
        }
      ],
      "stateMutability": "view",
      "type": "function",
      "constant": true
    }
  ],
  "bytecode": "0x60a060405234801561001057600080fd5b503373ffffffffffffffffffffffffffffffffffffffff1660808173ffffffffffffffffffffffffffffffffffffffff1660601b8152505060805160601c6113fa61006d6000396000818161019501526101b901526113fa6000f3fe6080604052600436106100705760003560e01c8063ad7a672f1161004e578063ad7a672f146100d3578063e2eb41ff146100fe578063f42463bf1461013d578063f60cdcf61461016857610070565b8063481c6a75146100755780635d495aea146100a05780639d4ff8ad146100b7575b600080fd5b34801561008157600080fd5b5061008a610193565b6040516100979190610dc5565b60405180910390f35b3480156100ac57600080fd5b506100b56101b7565b005b6100d160048036038101906100cc9190610aa6565b6103dc565b005b3480156100df57600080fd5b506100e86105f4565b6040516100f59190610ec0565b60405180910390f35b34801561010a57600080fd5b5061012560048036038101906101209190610a7d565b6105fc565b60405161013493929190610e02565b60405180910390f35b34801561014957600080fd5b506101526106c8565b60405161015f9190610de0565b60405180910390f35b34801561017457600080fd5b5061017d610932565b60405161018a9190610ec0565b60405180910390f35b7f000000000000000000000000000000000000000000000000000000000000000081565b7f000000000000000000000000000000000000000000000000000000000000000073ffffffffffffffffffffffffffffffffffffffff163373ffffffffffffffffffffffffffffffffffffffff1614610245576040517f08c379a000000000000000000000000000000000000000000000000000000000815260040161023c90610e60565b60405180910390fd5b60036002541461028a576040517f08c379a000000000000000000000000000000000000000000000000000000000815260040161028190610e80565b60405180910390fd5b60006002544260016040516020016102a3929190610d9d565b6040516020818303038152906040528051906020012060001c6102c6919061119f565b9050600060018281548110610304577f4e487b7100000000000000000000000000000000000000000000000000000000600052603260045260246000fd5b9060005260206000200160009054906101000a900473ffffffffffffffffffffffffffffffffffffffff16905060004790508173ffffffffffffffffffffffffffffffffffffffff166108fc829081150290604051600060405180830381858888f1935050505015801561037c573d6000803e3d6000fd5b5060016000808473ffffffffffffffffffffffffffffffffffffffff1673ffffffffffffffffffffffffffffffffffffffff16815260200190815260200160002060010160016101000a81548160ff021916908315150217905550505050565b66038d7ea4c68000341015610426576040517f08c379a000000000000000000000000000000000000000000000000000000000815260040161041d90610e40565b60405180910390fd5b6000803373ffffffffffffffffffffffffffffffffffffffff1673ffffffffffffffffffffffffffffffffffffffff16815260200190815260200160002060010160009054906101000a900460ff16156104b5576040517f08c379a00000000000000000000000000000000000000000000000000000000081526004016104ac90610ea0565b60405180910390fd5b6040518060600160405280828152602001600115158152602001600015158152506000803373ffffffffffffffffffffffffffffffffffffffff1673ffffffffffffffffffffffffffffffffffffffff1681526020019081526020016000206000820151816000019080519060200190610530929190610938565b5060208201518160010160006101000a81548160ff02191690831515021790555060408201518160010160016101000a81548160ff0219169083151502179055509050506001339080600181540180825580915050600190039060005260206000200160009091909190916101000a81548173ffffffffffffffffffffffffffffffffffffffff021916908373ffffffffffffffffffffffffffffffffffffffff1602179055506001600260008282546105ea9190610fcf565b9250508190555050565b600047905090565b600060205280600052604060002060009150905080600001805461061f906110cf565b80601f016020809104026020016040519081016040528092919081815260200182805461064b906110cf565b80156106985780601f1061066d57610100808354040283529160200191610698565b820191906000526020600020905b81548152906001019060200180831161067b57829003601f168201915b5050505050908060010160009054906101000a900460ff16908060010160019054906101000a900460ff16905083565b60606000600180549050905060008167ffffffffffffffff811115610716577f4e487b7100000000000000000000000000000000000000000000000000000000600052604160045260246000fd5b60405190808252806020026020018201604052801561074f57816020015b61073c6109be565b8152602001906001900390816107345790505b50905060005b82811015610929576000806001838154811061079a577f4e487b7100000000000000000000000000000000000000000000000000000000600052603260045260246000fd5b9060005260206000200160009054906101000a900473ffffffffffffffffffffffffffffffffffffffff1673ffffffffffffffffffffffffffffffffffffffff1673ffffffffffffffffffffffffffffffffffffffff16815260200190815260200160002060405180606001604052908160008201805461081a906110cf565b80601f0160208091040260200160405190810160405280929190818152602001828054610846906110cf565b80156108935780601f1061086857610100808354040283529160200191610893565b820191906000526020600020905b81548152906001019060200180831161087657829003601f168201915b505050505081526020016001820160009054906101000a900460ff161515151581526020016001820160019054906101000a900460ff16151515158152505082828151811061090b577f4e487b7100000000000000000000000000000000000000000000000000000000600052603260045260246000fd5b602002602001018190525080806109219061114c565b915050610755565b50809250505090565b60025481565b828054610944906110cf565b90600052602060002090601f01602090048101928261096657600085556109ad565b82601f1061097f57805160ff19168380011785556109ad565b828001600101855582156109ad579182015b828111156109ac578251825591602001919060010190610991565b5b5090506109ba91906109e3565b5090565b6040518060600160405280606081526020016000151581526020016000151581525090565b5b808211156109fc5760008160009055506001016109e4565b5090565b6000610a13610a0e84610f00565b610edb565b905082815260208101848484011115610a2b57600080fd5b610a3684828561108d565b509392505050565b600081359050610a4d816113ad565b92915050565b600082601f830112610a6457600080fd5b8135610a74848260208601610a00565b91505092915050565b600060208284031215610a8f57600080fd5b6000610a9d84828501610a3e565b91505092915050565b600060208284031215610ab857600080fd5b600082013567ffffffffffffffff811115610ad257600080fd5b610ade84828501610a53565b91505092915050565b6000610af38383610b22565b60208301905092915050565b6000610b0b8383610d27565b905092915050565b610b1c81611045565b82525050565b610b2b81611045565b82525050565b6000610b3c82610f56565b610b468185610f91565b9350610b5183610f31565b8060005b83811015610b8957610b668261128c565b610b708882610ae7565b9750610b7b83610f77565b925050600181019050610b55565b5085935050505092915050565b6000610ba182610f61565b610bab8185610f9c565b935083602082028501610bbd85610f46565b8060005b85811015610bf95784840389528151610bda8582610aff565b9450610be583610f84565b925060208a01995050600181019050610bc1565b50829750879550505050505092915050565b610c1481611057565b82525050565b610c2381611057565b82525050565b6000610c3482610f6c565b610c3e8185610fad565b9350610c4e81856020860161109c565b610c578161129f565b840191505092915050565b6000610c6d82610f6c565b610c778185610fbe565b9350610c8781856020860161109c565b610c908161129f565b840191505092915050565b6000610ca8602383610fbe565b9150610cb3826112bd565b604082019050919050565b6000610ccb602783610fbe565b9150610cd68261130c565b604082019050919050565b6000610cee602083610fbe565b9150610cf98261135b565b602082019050919050565b6000610d11600e83610fbe565b9150610d1c82611384565b602082019050919050565b60006060830160008301518482036000860152610d448282610c29565b9150506020830151610d596020860182610c0b565b506040830151610d6c6040860182610c0b565b508091505092915050565b610d8081611083565b82525050565b610d97610d9282611083565b611195565b82525050565b6000610da98285610d86565b602082019150610db98284610b31565b91508190509392505050565b6000602082019050610dda6000830184610b13565b92915050565b60006020820190508181036000830152610dfa8184610b96565b905092915050565b60006060820190508181036000830152610e1c8186610c62565b9050610e2b6020830185610c1a565b610e386040830184610c1a565b949350505050565b60006020820190508181036000830152610e5981610c9b565b9050919050565b60006020820190508181036000830152610e7981610cbe565b9050919050565b60006020820190508181036000830152610e9981610ce1565b9050919050565b60006020820190508181036000830152610eb981610d04565b9050919050565b6000602082019050610ed56000830184610d77565b92915050565b6000610ee5610ef6565b9050610ef1828261111b565b919050565b6000604051905090565b600067ffffffffffffffff821115610f1b57610f1a61125d565b5b610f248261129f565b9050602081019050919050565b60008190508160005260206000209050919050565b6000819050602082019050919050565b600081549050919050565b600081519050919050565b600081519050919050565b6000600182019050919050565b6000602082019050919050565b600081905092915050565b600082825260208201905092915050565b600082825260208201905092915050565b600082825260208201905092915050565b6000610fda82611083565b9150610fe583611083565b9250827fffffffffffffffffffffffffffffffffffffffffffffffffffffffffffffffff0382111561101a576110196111d0565b5b828201905092915050565b600073ffffffffffffffffffffffffffffffffffffffff82169050919050565b600061105082611063565b9050919050565b60008115159050919050565b600073ffffffffffffffffffffffffffffffffffffffff82169050919050565b6000819050919050565b82818337600083830152505050565b60005b838110156110ba57808201518184015260208101905061109f565b838111156110c9576000848401525b50505050565b600060028204905060018216806110e757607f821691505b602082108114156110fb576110fa61122e565b5b50919050565b600061111461110f836112b0565b611025565b9050919050565b6111248261129f565b810181811067ffffffffffffffff821117156111435761114261125d565b5b80604052505050565b600061115782611083565b91507fffffffffffffffffffffffffffffffffffffffffffffffffffffffffffffffff82141561118a576111896111d0565b5b600182019050919050565b6000819050919050565b60006111aa82611083565b91506111b583611083565b9250826111c5576111c46111ff565b5b828206905092915050565b7f4e487b7100000000000000000000000000000000000000000000000000000000600052601160045260246000fd5b7f4e487b7100000000000000000000000000000000000000000000000000000000600052601260045260246000fd5b7f4e487b7100000000000000000000000000000000000000000000000000000000600052602260045260246000fd5b7f4e487b7100000000000000000000000000000000000000000000000000000000600052604160045260246000fd5b60006112988254611101565b9050919050565b6000601f19601f8301169050919050565b60008160001c9050919050565b7f4d696e696d756d20636f6e747269627574696f6e20697320302e30303120657460008201527f6865720000000000000000000000000000000000000000000000000000000000602082015250565b7f4f6e6c7920746865206d616e616765722063616e2063616c6c2074686973206660008201527f756e6374696f6e00000000000000000000000000000000000000000000000000602082015250565b7f41746c65617374203320706c617965727320746f207069636b2077696e6e6572600082015250565b7f416c726561647920506c61796572000000000000000000000000000000000000600082015250565b6113b681611045565b81146113c157600080fd5b5056fea26469706673582212200268bcedd048be61a832676d9f91a1d3d976a51be74f9804c05bd44322b3655d64736f6c63430008040033",
  "immutableReferences": {
    "10": [
      {
        "length": 32,
        "start": 405
      },
      {
        "length": 32,
        "start": 441
      }
    ]
  },
  "source": "// contract Lottery {\r\n//     address public manager;\r\n//     address[] public players;\r\n\r\n//     constructor() {\r\n//         manager = msg.sender;\r\n//     }\r\n\r\n//     // Function to enter the lottery\r\n//     function enter() public payable validateAmount {\r\n//         require(players.length < 3, \"Maximum 3 players allowed\");\r\n//         require(!isPlayer(msg.sender), \"Player already entered\");\r\n//         players.push(msg.sender);\r\n//     }\r\n// function isPlayer(address player) public view returns (bool) {\r\n//     for (uint i = 0; i < players.length; i++) {\r\n//         if (players[i] == player) {\r\n//             return true;\r\n//         }\r\n//     }\r\n//     return false;\r\n// }\r\n//     // Function to pick a winner\r\n//     function pickWinner() public restricted {\r\n//         require(players.length > 0, \"No players to pick a winner\");\r\n//         address winner = players[random() % players.length];\r\n//         uint balance = address(this).balance;\r\n//         payable(winner).transfer(balance);\r\n//         players = new address[](0); // Reset the players array\r\n//     }\r\n\r\n//     // Function to get the current players\r\n//     function getPlayers() public view returns (address[] memory) {\r\n//         return players;\r\n//     }\r\n\r\n//     // Modifier to restrict access to the manager\r\n//     modifier restricted() {\r\n//         require(\r\n//             msg.sender == manager,\r\n//             \"Only the manager can call this function\"\r\n//         );\r\n//         _;\r\n//     }\r\n//     modifier validateAmount() {\r\n//         require(msg.value == 0.1 ether, \"Minimum contribution is 1 ether\");\r\n//         _;\r\n//     }\r\n\r\n//     // Function to generate a pseudo-random number based on the block's timestamp\r\n//     function random() private view returns (uint) {\r\n//         return\r\n//             uint(\r\n//                 keccak256(abi.encodePacked(block.timestamp, players, manager))\r\n//             );\r\n//     }\r\n\r\n//     // Receive function to accept Ether\r\n//     receive() external payable {\r\n//         // This function allows the contract to accept Ether without a specific function call.\r\n//     }\r\n// }\r\n// SPDX-License-Identifier: MIT\r\n\r\npragma solidity >=0.4.22 <0.8.21;\r\n\r\ncontract Lottery {\r\n    struct Player {\r\n        string playerName;\r\n        bool isPlayer;\r\n        bool isWinner;\r\n    }\r\n    address public immutable manager;\r\n    mapping(address => Player) public players;\r\n    address[] addresses;\r\n\r\n    uint public totalPlayers;\r\n\r\n    constructor() {\r\n        manager = msg.sender;\r\n    }\r\n\r\n    // Function to enter the lottery\r\n    function enter(string memory playerName) public payable validateAmount {\r\n        require(!players[msg.sender].isPlayer, \"Already Player\");\r\n\r\n        players[msg.sender] = Player(playerName, true, false);\r\n        addresses.push(msg.sender);\r\n\r\n        totalPlayers += 1;\r\n    }\r\n\r\n    // Function to pick a winner\r\n    function pickWinner() public restricted {\r\n        require(totalPlayers == 3, \"Atleast 3 players to pick winner\");\r\n        // Generate a pseudo-random number based on the block's timestamp\r\n        uint index = uint(\r\n            keccak256(abi.encodePacked(block.timestamp, addresses))\r\n        ) % totalPlayers;\r\n\r\n        address winnerAddress = addresses[index];\r\n\r\n        uint balance = address(this).balance;\r\n        payable(winnerAddress).transfer(balance);\r\n\r\n        players[winnerAddress].isWinner = true;\r\n    }\r\n\r\n    // Modifier to restrict access to the manager\r\n    modifier restricted() {\r\n        require(\r\n            msg.sender == manager,\r\n            \"Only the manager can call this function\"\r\n        );\r\n        _;\r\n    }\r\n\r\n    // Modifier to validate the amount\r\n    modifier validateAmount() {\r\n        require(\r\n            msg.value >= 0.001 ether,\r\n            \"Minimum contribution is 0.001 ether\"\r\n        );\r\n        _;\r\n    }\r\n\r\n    function totalBalance() public view returns (uint) {\r\n        return address(this).balance;\r\n    }\r\n\r\n    // Function to get the total mapping\r\n    function getTotalMapping() public view returns (Player[] memory) {\r\n        uint256 length = addresses.length;\r\n        Player[] memory playerData = new Player[](length);\r\n        for (uint256 i = 0; i < length; i++) {\r\n            playerData[i] = players[addresses[i]];\r\n        }\r\n        return playerData;\r\n    }\r\n}\r\n",
  "sourcePath": "c:\\Users\\Hp\\Desktop\\dapp_lottery\\backend\\contracts\\lottery.sol",
  "compiler": {
    "name": "solc",
    "version": "0.8.4+commit.c7e474f2.Emscripten.clang"
  },
  "schemaVersion": "3.4.16",
  "updatedAt": "2023-10-29T11:39:52.197Z",
  "networkType": "ethereum",
  "devdoc": {
    "kind": "dev",
    "methods": {},
    "version": 1
  },
  "userdoc": {
    "kind": "user",
    "methods": {},
    "version": 1
  }
}