{
  "contractName": "Lottery",
  "abi": [
    {
      "inputs": [],
      "stateMutability": "nonpayable",
      "type": "constructor"
    },
    {
      "anonymous": false,
      "inputs": [
        {
          "components": [
            {
              "internalType": "string",
              "name": "playerName",
              "type": "string"
            },
            {
              "internalType": "address",
              "name": "playerAddress",
              "type": "address"
            },
            {
              "internalType": "bool",
              "name": "isPlayer",
              "type": "bool"
            }
          ],
          "indexed": false,
          "internalType": "struct Lottery.Player",
          "name": "",
          "type": "tuple"
        }
      ],
      "name": "PlayerEntered",
      "type": "event"
    },
    {
      "anonymous": false,
      "inputs": [
        {
          "components": [
            {
              "internalType": "string",
              "name": "playerName",
              "type": "string"
            },
            {
              "internalType": "address",
              "name": "playerAddress",
              "type": "address"
            },
            {
              "internalType": "bool",
              "name": "isPlayer",
              "type": "bool"
            }
          ],
          "indexed": false,
          "internalType": "struct Lottery.Player",
          "name": "",
          "type": "tuple"
        },
        {
          "indexed": false,
          "internalType": "uint256",
          "name": "prizeAmount",
          "type": "uint256"
        }
      ],
      "name": "WinnerPicked",
      "type": "event"
    },
    {
      "inputs": [],
      "name": "manager",
      "outputs": [
        {
          "internalType": "address",
          "name": "",
          "type": "address"
        }
      ],
      "stateMutability": "view",
      "type": "function",
      "constant": true
    },
    {
      "inputs": [
        {
          "internalType": "address",
          "name": "",
          "type": "address"
        }
      ],
      "name": "players",
      "outputs": [
        {
          "internalType": "string",
          "name": "playerName",
          "type": "string"
        },
        {
          "internalType": "address",
          "name": "playerAddress",
          "type": "address"
        },
        {
          "internalType": "bool",
          "name": "isPlayer",
          "type": "bool"
        }
      ],
      "stateMutability": "view",
      "type": "function",
      "constant": true
    },
    {
      "inputs": [],
      "name": "winner",
      "outputs": [
        {
          "internalType": "address",
          "name": "",
          "type": "address"
        }
      ],
      "stateMutability": "view",
      "type": "function",
      "constant": true
    },
    {
      "inputs": [
        {
          "internalType": "string",
          "name": "playerName",
          "type": "string"
        }
      ],
      "name": "enter",
      "outputs": [],
      "stateMutability": "payable",
      "type": "function",
      "payable": true
    },
    {
      "inputs": [],
      "name": "pickWinner",
      "outputs": [],
      "stateMutability": "nonpayable",
      "type": "function"
    },
    {
      "inputs": [],
      "name": "resetPlayers",
      "outputs": [],
      "stateMutability": "nonpayable",
      "type": "function"
    },
    {
      "inputs": [],
      "name": "totalBalance",
      "outputs": [
        {
          "internalType": "uint256",
          "name": "",
          "type": "uint256"
        }
      ],
      "stateMutability": "view",
      "type": "function",
      "constant": true
    },
    {
      "inputs": [],
      "name": "getTotalMapping",
      "outputs": [
        {
          "components": [
            {
              "internalType": "string",
              "name": "playerName",
              "type": "string"
            },
            {
              "internalType": "address",
              "name": "playerAddress",
              "type": "address"
            },
            {
              "internalType": "bool",
              "name": "isPlayer",
              "type": "bool"
            }
          ],
          "internalType": "struct Lottery.Player[]",
          "name": "",
          "type": "tuple[]"
        }
      ],
      "stateMutability": "view",
      "type": "function",
      "constant": true
    }
  ],
  "bytecode": "0x60a060405234801561001057600080fd5b503373ffffffffffffffffffffffffffffffffffffffff1660808173ffffffffffffffffffffffffffffffffffffffff1660601b8152505060805160601c61181f61006d600039600081816101b701526101db015261181f6000f3fe60806040526004361061007b5760003560e01c8063ad7a672f1161004e578063ad7a672f146100f5578063dfbf53ae14610120578063e2eb41ff1461014b578063f42463bf1461018a5761007b565b8063481c6a75146100805780635d495aea146100ab57806362214c03146100c25780639d4ff8ad146100d9575b600080fd5b34801561008c57600080fd5b506100956101b5565b6040516100a2919061118c565b60405180910390f35b3480156100b757600080fd5b506100c06101d9565b005b3480156100ce57600080fd5b506100d76104af565b005b6100f360048036038101906100ee9190610e17565b6105d4565b005b34801561010157600080fd5b5061010a610883565b60405161011791906112d9565b60405180910390f35b34801561012c57600080fd5b5061013561088b565b604051610142919061118c565b60405180910390f35b34801561015757600080fd5b50610172600480360381019061016d9190610dee565b6108af565b604051610181939291906111c9565b60405180910390f35b34801561019657600080fd5b5061019f61098e565b6040516101ac91906111a7565b60405180910390f35b7f000000000000000000000000000000000000000000000000000000000000000081565b7f000000000000000000000000000000000000000000000000000000000000000073ffffffffffffffffffffffffffffffffffffffff163373ffffffffffffffffffffffffffffffffffffffff1614610267576040517f08c379a000000000000000000000000000000000000000000000000000000000815260040161025e90611247565b60405180910390fd5b600360028054905010156102b0576040517f08c379a00000000000000000000000000000000000000000000000000000000081526004016102a790611207565b60405180910390fd5b60006002805490506001436102c591906113c5565b406040516020016102d69190611171565b6040516020818303038152906040528051906020012060001c6102f991906115a4565b905060028181548110610335577f4e487b7100000000000000000000000000000000000000000000000000000000600052603260045260246000fd5b9060005260206000200160009054906101000a900473ffffffffffffffffffffffffffffffffffffffff166000806101000a81548173ffffffffffffffffffffffffffffffffffffffff021916908373ffffffffffffffffffffffffffffffffffffffff160217905550600047905060008054906101000a900473ffffffffffffffffffffffffffffffffffffffff1673ffffffffffffffffffffffffffffffffffffffff166108fc829081150290604051600060405180830381858888f1935050505015801561040a573d6000803e3d6000fd5b507fa5b7b1115f09d45b04e58eb649354eac0500613cb13879c786d2f618dd6ed393600160008060009054906101000a900473ffffffffffffffffffffffffffffffffffffffff1673ffffffffffffffffffffffffffffffffffffffff1673ffffffffffffffffffffffffffffffffffffffff1681526020019081526020016000208260405161049b9291906112a9565b60405180910390a16104ab6104af565b5050565b60005b6002805490508110156105c35760016000600283815481106104fd577f4e487b7100000000000000000000000000000000000000000000000000000000600052603260045260246000fd5b9060005260206000200160009054906101000a900473ffffffffffffffffffffffffffffffffffffffff1673ffffffffffffffffffffffffffffffffffffffff1673ffffffffffffffffffffffffffffffffffffffff168152602001908152602001600020600080820160006105739190610c34565b6001820160006101000a81549073ffffffffffffffffffffffffffffffffffffffff02191690556001820160146101000a81549060ff0219169055505080806105bb90611551565b9150506104b2565b50600260006105d29190610c74565b565b66038d7ea4c6800034101561061e576040517f08c379a000000000000000000000000000000000000000000000000000000000815260040161061590611227565b60405180910390fd5b600160003373ffffffffffffffffffffffffffffffffffffffff1673ffffffffffffffffffffffffffffffffffffffff16815260200190815260200160002060010160149054906101000a900460ff16156106ae576040517f08c379a00000000000000000000000000000000000000000000000000000000081526004016106a590611267565b60405180910390fd5b60405180606001604052808281526020013373ffffffffffffffffffffffffffffffffffffffff16815260200160011515815250600160003373ffffffffffffffffffffffffffffffffffffffff1673ffffffffffffffffffffffffffffffffffffffff168152602001908152602001600020600082015181600001908051906020019061073d929190610c95565b5060208201518160010160006101000a81548173ffffffffffffffffffffffffffffffffffffffff021916908373ffffffffffffffffffffffffffffffffffffffff16021790555060408201518160010160146101000a81548160ff0219169083151502179055509050506002339080600181540180825580915050600190039060005260206000200160009091909190916101000a81548173ffffffffffffffffffffffffffffffffffffffff021916908373ffffffffffffffffffffffffffffffffffffffff1602179055507f435b969f2b976ad074979ed2288a195802d6b2e26f676bef605b9cc5b5ece23d600160003373ffffffffffffffffffffffffffffffffffffffff1673ffffffffffffffffffffffffffffffffffffffff1681526020019081526020016000206040516108789190611287565b60405180910390a150565b600047905090565b60008054906101000a900473ffffffffffffffffffffffffffffffffffffffff1681565b60016020528060005260406000206000915090508060000180546108d2906114ba565b80601f01602080910402602001604051908101604052809291908181526020018280546108fe906114ba565b801561094b5780601f106109205761010080835404028352916020019161094b565b820191906000526020600020905b81548152906001019060200180831161092e57829003601f168201915b5050505050908060010160009054906101000a900473ffffffffffffffffffffffffffffffffffffffff16908060010160149054906101000a900460ff16905083565b60606000600280549050905060008167ffffffffffffffff8111156109dc577f4e487b7100000000000000000000000000000000000000000000000000000000600052604160045260246000fd5b604051908082528060200260200182016040528015610a1557816020015b610a02610d1b565b8152602001906001900390816109fa5790505b50905060005b82811015610c2b576001600060028381548110610a61577f4e487b7100000000000000000000000000000000000000000000000000000000600052603260045260246000fd5b9060005260206000200160009054906101000a900473ffffffffffffffffffffffffffffffffffffffff1673ffffffffffffffffffffffffffffffffffffffff1673ffffffffffffffffffffffffffffffffffffffff168152602001908152602001600020604051806060016040529081600082018054610ae1906114ba565b80601f0160208091040260200160405190810160405280929190818152602001828054610b0d906114ba565b8015610b5a5780601f10610b2f57610100808354040283529160200191610b5a565b820191906000526020600020905b815481529060010190602001808311610b3d57829003601f168201915b505050505081526020016001820160009054906101000a900473ffffffffffffffffffffffffffffffffffffffff1673ffffffffffffffffffffffffffffffffffffffff1673ffffffffffffffffffffffffffffffffffffffff1681526020016001820160149054906101000a900460ff161515151581525050828281518110610c0d577f4e487b7100000000000000000000000000000000000000000000000000000000600052603260045260246000fd5b60200260200101819052508080610c2390611551565b915050610a1b565b50809250505090565b508054610c40906114ba565b6000825580601f10610c525750610c71565b601f016020900490600052602060002090810190610c709190610d54565b5b50565b5080546000825590600052602060002090810190610c929190610d54565b50565b828054610ca1906114ba565b90600052602060002090601f016020900481019282610cc35760008555610d0a565b82601f10610cdc57805160ff1916838001178555610d0a565b82800160010185558215610d0a579182015b82811115610d09578251825591602001919060010190610cee565b5b509050610d179190610d54565b5090565b604051806060016040528060608152602001600073ffffffffffffffffffffffffffffffffffffffff1681526020016000151581525090565b5b80821115610d6d576000816000905550600101610d55565b5090565b6000610d84610d7f84611319565b6112f4565b905082815260208101848484011115610d9c57600080fd5b610da7848285611478565b509392505050565b600081359050610dbe816117d2565b92915050565b600082601f830112610dd557600080fd5b8135610de5848260208601610d71565b91505092915050565b600060208284031215610e0057600080fd5b6000610e0e84828501610daf565b91505092915050565b600060208284031215610e2957600080fd5b600082013567ffffffffffffffff811115610e4357600080fd5b610e4f84828501610dc4565b91505092915050565b6000610e6483836110b2565b905092915050565b610e7581611426565b82525050565b610e8481611426565b82525050565b6000610e958261136f565b610e9f8185611392565b935083602082028501610eb18561134a565b8060005b85811015610eed5784840389528151610ece8582610e58565b9450610ed983611385565b925060208a01995050600181019050610eb5565b50829750879550505050505092915050565b610f0881611438565b82525050565b610f1781611438565b82525050565b610f2e610f2982611444565b61159a565b82525050565b6000610f3f8261137a565b610f4981856113a3565b9350610f59818560208601611487565b610f6281611691565b840191505092915050565b6000610f788261137a565b610f8281856113b4565b9350610f92818560208601611487565b610f9b81611691565b840191505092915050565b60008154610fb3816114ba565b610fbd81866113a3565b94506001821660008114610fd85760018114610fea5761101d565b60ff198316865260208601935061101d565b610ff38561135a565b60005b8381101561101557815481890152600182019150602081019050610ff6565b808801955050505b50505092915050565b6000611033602c836113b4565b915061103e826116bc565b604082019050919050565b60006110566023836113b4565b91506110618261170b565b604082019050919050565b60006110796027836113b4565b91506110848261175a565b604082019050919050565b600061109c6018836113b4565b91506110a7826117a9565b602082019050919050565b600060608301600083015184820360008601526110cf8282610f34565b91505060208301516110e46020860182610e6c565b5060408301516110f76040860182610eff565b508091505092915050565b6000606083016000808401858303600087015261111f8382610fa6565b92505060018401549050611132816114ec565b61113f6020870182610e6c565b5061114981611506565b6111566040870182610eff565b50819250505092915050565b61116b8161146e565b82525050565b600061117d8284610f1d565b60208201915081905092915050565b60006020820190506111a16000830184610e7b565b92915050565b600060208201905081810360008301526111c18184610e8a565b905092915050565b600060608201905081810360008301526111e38186610f6d565b90506111f26020830185610e7b565b6111ff6040830184610f0e565b949350505050565b6000602082019050818103600083015261122081611026565b9050919050565b6000602082019050818103600083015261124081611049565b9050919050565b600060208201905081810360008301526112608161106c565b9050919050565b600060208201905081810360008301526112808161108f565b9050919050565b600060208201905081810360008301526112a18184611102565b905092915050565b600060408201905081810360008301526112c38185611102565b90506112d26020830184611162565b9392505050565b60006020820190506112ee6000830184611162565b92915050565b60006112fe61130f565b905061130a8282611520565b919050565b6000604051905090565b600067ffffffffffffffff82111561133457611333611662565b5b61133d82611691565b9050602081019050919050565b6000819050602082019050919050565b60008190508160005260206000209050919050565b600081519050919050565b600081519050919050565b6000602082019050919050565b600082825260208201905092915050565b600082825260208201905092915050565b600082825260208201905092915050565b60006113d08261146e565b91506113db8361146e565b9250828210156113ee576113ed6115d5565b5b828203905092915050565b600073ffffffffffffffffffffffffffffffffffffffff82169050919050565b600060ff82169050919050565b60006114318261144e565b9050919050565b60008115159050919050565b6000819050919050565b600073ffffffffffffffffffffffffffffffffffffffff82169050919050565b6000819050919050565b82818337600083830152505050565b60005b838110156114a557808201518184015260208101905061148a565b838111156114b4576000848401525b50505050565b600060028204905060018216806114d257607f821691505b602082108114156114e6576114e5611633565b5b50919050565b60006114ff6114fa836116a2565b6113f9565b9050919050565b6000611519611514836116af565b611419565b9050919050565b61152982611691565b810181811067ffffffffffffffff8211171561154857611547611662565b5b80604052505050565b600061155c8261146e565b91507fffffffffffffffffffffffffffffffffffffffffffffffffffffffffffffffff82141561158f5761158e6115d5565b5b600182019050919050565b6000819050919050565b60006115af8261146e565b91506115ba8361146e565b9250826115ca576115c9611604565b5b828206905092915050565b7f4e487b7100000000000000000000000000000000000000000000000000000000600052601160045260246000fd5b7f4e487b7100000000000000000000000000000000000000000000000000000000600052601260045260246000fd5b7f4e487b7100000000000000000000000000000000000000000000000000000000600052602260045260246000fd5b7f4e487b7100000000000000000000000000000000000000000000000000000000600052604160045260246000fd5b6000601f19601f8301169050919050565b60008160001c9050919050565b60008160a01c9050919050565b7f4174206c65617374203320706c617965727320726571756972656420746f207060008201527f69636b20612077696e6e65720000000000000000000000000000000000000000602082015250565b7f4d696e696d756d20636f6e747269627574696f6e20697320302e30303120657460008201527f6865720000000000000000000000000000000000000000000000000000000000602082015250565b7f4f6e6c7920746865206d616e616765722063616e2063616c6c2074686973206660008201527f756e6374696f6e00000000000000000000000000000000000000000000000000602082015250565b7f596f752061726520616c7265616479206120706c617965720000000000000000600082015250565b6117db81611426565b81146117e657600080fd5b5056fea264697066735822122098611aea1884700d3dbf0e09bc4c199fd389bc92b6548e1f8e0425dd8e79c1b764736f6c63430008040033",
  "immutableReferences": {
    "10": [
      {
        "length": 32,
        "start": 439
      },
      {
        "length": 32,
        "start": 475
      }
    ]
  },
  "source": "// contract Lottery {\n//     address public manager;\n//     address[] public players;\n\n//     constructor() {\n//         manager = msg.sender;\n//     }\n\n//     // Function to enter the lottery\n//     function enter() public payable validateAmount {\n//         require(players.length < 3, \"Maximum 3 players allowed\");\n//         require(!isPlayer(msg.sender), \"Player already entered\");\n//         players.push(msg.sender);\n//     }\n// function isPlayer(address player) public view returns (bool) {\n//     for (uint i = 0; i < players.length; i++) {\n//         if (players[i] == player) {\n//             return true;\n//         }\n//     }\n//     return false;\n// }\n//     // Function to pick a winner\n//     function pickWinner() public restricted {\n//         require(players.length > 0, \"No players to pick a winner\");\n//         address winner = players[random() % players.length];\n//         uint balance = address(this).balance;\n//         payable(winner).transfer(balance);\n//         players = new address[](0); // Reset the players array\n//     }\n\n//     // Function to get the current players\n//     function getPlayers() public view returns (address[] memory) {\n//         return players;\n//     }\n\n//     // Modifier to restrict access to the manager\n//     modifier restricted() {\n//         require(\n//             msg.sender == manager,\n//             \"Only the manager can call this function\"\n//         );\n//         _;\n//     }\n//     modifier validateAmount() {\n//         require(msg.value == 0.1 ether, \"Minimum contribution is 1 ether\");\n//         _;\n//     }\n\n//     // Function to generate a pseudo-random number based on the block's timestamp\n//     function random() private view returns (uint) {\n//         return\n//             uint(\n//                 keccak256(abi.encodePacked(block.timestamp, players, manager))\n//             );\n//     }\n\n//     // Receive function to accept Ether\n//     receive() external payable {\n//         // This function allows the contract to accept Ether without a specific function call.\n//     }\n// }\n\n// SPDX-License-Identifier: MIT\npragma solidity >=0.4.22 <0.8.21;\n\ncontract Lottery {\n    struct Player {\n        string playerName;\n        address playerAddress;\n        bool isPlayer;\n\n        \n    }\n\n    address public immutable manager;\n    address public  winner;\n    mapping(address => Player) public players;\n    address[] addresses;\n\n\n    // Define an event for when a player enters the lottery\n    event PlayerEntered(Player);\n\n    // Define an event for when a winner is picked\n    event WinnerPicked(Player, uint prizeAmount);\n\n    constructor() {\n        manager = msg.sender;\n    }\n\n    function enter(string memory playerName) public payable validateAmount {\n        require(!players[msg.sender].isPlayer, \"You are already a player\");\n\n        players[msg.sender] = Player(playerName,msg.sender, true);\n        addresses.push(msg.sender);\n\n\n        // Emit the PlayerEntered event when a player enters the lottery\n        emit PlayerEntered(players[msg.sender]);\n    }\n\nfunction pickWinner() public restricted {\n    require(addresses.length >= 3, \"At least 3 players required to pick a winner\");\n\n    // Use a secure source of randomness\n    uint index = uint(keccak256(abi.encodePacked(blockhash(block.number - 1)))) % addresses.length;\n\n    winner = addresses[index];\n\n    uint balance = address(this).balance;\n\n    // Transfer the prize amount to the winner\n    payable(winner).transfer(balance);\n\n    // Emit the WinnerPicked event when a winner is picked\n    emit WinnerPicked(players[winner], balance);\n\n    // Reset the players and addresses array\n    resetPlayers();\n}\n  function resetPlayers() public  {\n\n for (uint256 i = 0; i < addresses.length; i++) {\n           delete players[addresses[i]];\n          \n\n        }\n         delete addresses;\n  }\n    modifier restricted() {\n        require(\n            msg.sender == manager,\n            \"Only the manager can call this function\"\n        );\n        _;\n    }\n\n    modifier validateAmount() {\n        require(\n            msg.value >= 0.001 ether,\n            \"Minimum contribution is 0.001 ether\"\n        );\n        _;\n    }\n\n    function totalBalance() public view returns (uint) {\n        return address(this).balance;\n    }\n\n    function getTotalMapping() public view returns (Player[] memory) {\n        uint256 length = addresses.length;\n        Player[] memory playerData = new Player[](length);\n        for (uint256 i = 0; i < length; i++) {\n            playerData[i] = players[addresses[i]];\n        }\n        return playerData;\n    }\n\n  \n}\n",
  "sourcePath": "/home/farman/dapps/lottery/backend/contracts/lottery.sol",
  "compiler": {
    "name": "solc",
    "version": "0.8.4+commit.c7e474f2.Emscripten.clang"
  },
  "schemaVersion": "3.4.16",
  "updatedAt": "2023-11-11T09:58:14.596Z",
  "networkType": "ethereum",
  "devdoc": {
    "kind": "dev",
    "methods": {},
    "version": 1
  },
  "userdoc": {
    "kind": "user",
    "methods": {},
    "version": 1
  }
}